{
  "_format": "hh-sol-artifact-1",
  "contractName": "CrowdGaming",
  "sourceName": "contracts/CrowdGaming.sol",
  "abi": [
    {
      "anonymous": false,
      "inputs": [
        {
          "indexed": false,
          "internalType": "uint256",
          "name": "id",
          "type": "uint256"
        }
      ],
      "name": "Cancel",
      "type": "event"
    },
    {
      "anonymous": false,
      "inputs": [
        {
          "indexed": false,
          "internalType": "uint256",
          "name": "id",
          "type": "uint256"
        },
        {
          "indexed": true,
          "internalType": "address",
          "name": "owner",
          "type": "address"
        },
        {
          "indexed": false,
          "internalType": "string",
          "name": "title",
          "type": "string"
        },
        {
          "indexed": false,
          "internalType": "uint256",
          "name": "goal",
          "type": "uint256"
        },
        {
          "indexed": false,
          "internalType": "string",
          "name": "description",
          "type": "string"
        },
        {
          "indexed": false,
          "internalType": "uint256",
          "name": "startAt",
          "type": "uint256"
        },
        {
          "indexed": false,
          "internalType": "uint256",
          "name": "endAt",
          "type": "uint256"
        }
      ],
      "name": "Launch",
      "type": "event"
    },
    {
      "anonymous": false,
      "inputs": [
        {
          "indexed": true,
          "internalType": "uint256",
          "name": "id",
          "type": "uint256"
        },
        {
          "indexed": true,
          "internalType": "address",
          "name": "pledger",
          "type": "address"
        },
        {
          "indexed": false,
          "internalType": "uint256",
          "name": "amount",
          "type": "uint256"
        }
      ],
      "name": "Pledge",
      "type": "event"
    },
    {
      "anonymous": false,
      "inputs": [
        {
          "indexed": true,
          "internalType": "uint256",
          "name": "id",
          "type": "uint256"
        },
        {
          "indexed": true,
          "internalType": "address",
          "name": "pledger",
          "type": "address"
        },
        {
          "indexed": false,
          "internalType": "uint256",
          "name": "amount",
          "type": "uint256"
        }
      ],
      "name": "Refund",
      "type": "event"
    },
    {
      "anonymous": false,
      "inputs": [
        {
          "indexed": false,
          "internalType": "uint256",
          "name": "id",
          "type": "uint256"
        }
      ],
      "name": "Withdraw",
      "type": "event"
    },
    {
      "inputs": [
        {
          "internalType": "uint256",
          "name": "",
          "type": "uint256"
        }
      ],
      "name": "campaigns",
      "outputs": [
        {
          "internalType": "address",
          "name": "owner",
          "type": "address"
        },
        {
          "internalType": "string",
          "name": "title",
          "type": "string"
        },
        {
          "internalType": "string",
          "name": "description",
          "type": "string"
        },
        {
          "internalType": "uint256",
          "name": "pledged",
          "type": "uint256"
        },
        {
          "internalType": "uint256",
          "name": "goal",
          "type": "uint256"
        },
        {
          "internalType": "uint256",
          "name": "startAt",
          "type": "uint256"
        },
        {
          "internalType": "uint256",
          "name": "endAt",
          "type": "uint256"
        },
        {
          "internalType": "bool",
          "name": "claimed",
          "type": "bool"
        }
      ],
      "stateMutability": "view",
      "type": "function"
    },
    {
      "inputs": [
        {
          "internalType": "uint256",
          "name": "_id",
          "type": "uint256"
        }
      ],
      "name": "cancelCampaign",
      "outputs": [],
      "stateMutability": "nonpayable",
      "type": "function"
    },
    {
      "inputs": [
        {
          "internalType": "string",
          "name": "_title",
          "type": "string"
        },
        {
          "internalType": "string",
          "name": "_description",
          "type": "string"
        },
        {
          "internalType": "uint256",
          "name": "_goal",
          "type": "uint256"
        },
        {
          "internalType": "uint256",
          "name": "_startAt",
          "type": "uint256"
        },
        {
          "internalType": "uint256",
          "name": "_endAt",
          "type": "uint256"
        }
      ],
      "name": "launchCampaign",
      "outputs": [],
      "stateMutability": "nonpayable",
      "type": "function"
    },
    {
      "inputs": [
        {
          "internalType": "uint256",
          "name": "_id",
          "type": "uint256"
        }
      ],
      "name": "pledgeTo",
      "outputs": [],
      "stateMutability": "payable",
      "type": "function"
    },
    {
      "inputs": [
        {
          "internalType": "uint256",
          "name": "",
          "type": "uint256"
        },
        {
          "internalType": "address",
          "name": "",
          "type": "address"
        }
      ],
      "name": "pledgedAmount",
      "outputs": [
        {
          "internalType": "uint256",
          "name": "",
          "type": "uint256"
        }
      ],
      "stateMutability": "view",
      "type": "function"
    },
    {
      "inputs": [
        {
          "internalType": "uint256",
          "name": "_id",
          "type": "uint256"
        }
      ],
      "name": "refund",
      "outputs": [],
      "stateMutability": "payable",
      "type": "function"
    },
    {
      "inputs": [],
      "name": "totalCampaigns",
      "outputs": [
        {
          "internalType": "uint256",
          "name": "",
          "type": "uint256"
        }
      ],
      "stateMutability": "view",
      "type": "function"
    },
    {
      "inputs": [
        {
          "internalType": "uint256",
          "name": "_id",
          "type": "uint256"
        }
      ],
      "name": "withdrawFrom",
      "outputs": [],
      "stateMutability": "payable",
      "type": "function"
    }
  ],
  "bytecode": "0x608060405234801561001057600080fd5b50611fce806100206000396000f3fe60806040526004361061007b5760003560e01c806345598b4a1161004e57806345598b4a14610127578063aa4fb63a14610150578063e6dad8241461018d578063f00702a1146101a95761007b565b806302932f5614610080578063141961bc146100ab5780631f6dbc50146100ef578063278ecde11461010b575b600080fd5b34801561008c57600080fd5b506100956101d2565b6040516100a29190611a2f565b60405180910390f35b3480156100b757600080fd5b506100d260048036038101906100cd9190611400565b6101d8565b6040516100e6989796959493929190611783565b60405180910390f35b61010960048036038101906101049190611400565b61035d565b005b61012560048036038101906101209190611400565b6104d7565b005b34801561013357600080fd5b5061014e60048036038101906101499190611400565b6107c4565b005b34801561015c57600080fd5b5061017760048036038101906101729190611429565b610b28565b6040516101849190611a2f565b60405180910390f35b6101a760048036038101906101a29190611400565b610b4d565b005b3480156101b557600080fd5b506101d060048036038101906101cb9190611350565b610e16565b005b60005481565b60016020528060005260406000206000915090508060000160009054906101000a900473ffffffffffffffffffffffffffffffffffffffff169080600101805461022190611bc4565b80601f016020809104026020016040519081016040528092919081815260200182805461024d90611bc4565b801561029a5780601f1061026f5761010080835404028352916020019161029a565b820191906000526020600020905b81548152906001019060200180831161027d57829003601f168201915b5050505050908060020180546102af90611bc4565b80601f01602080910402602001604051908101604052809291908181526020018280546102db90611bc4565b80156103285780601f106102fd57610100808354040283529160200191610328565b820191906000526020600020905b81548152906001019060200180831161030b57829003601f168201915b5050505050908060030154908060040154908060050154908060060154908060070160009054906101000a900460ff16905088565b600060016000838152602001908152602001600020905080600501544210156103bb576040517f08c379a00000000000000000000000000000000000000000000000000000000081526004016103b29061194f565b60405180910390fd5b8060060154421115610402576040517f08c379a00000000000000000000000000000000000000000000000000000000081526004016103f9906118cf565b60405180910390fd5b348160030160008282546104169190611ae4565b92505081905550346002600084815260200190815260200160002060003373ffffffffffffffffffffffffffffffffffffffff1673ffffffffffffffffffffffffffffffffffffffff168152602001908152602001600020600082825461047d9190611ae4565b925050819055503373ffffffffffffffffffffffffffffffffffffffff16827f06bdb975df800a73232998e71ed585d536222f1dfeaa622d7f62a23ada686c82346040516104cb9190611a2f565b60405180910390a35050565b6000339050600060016000848152602001908152602001600020905080600601544211610539576040517f08c379a00000000000000000000000000000000000000000000000000000000081526004016105309061184f565b60405180910390fd5b8060040154816003015410610583576040517f08c379a000000000000000000000000000000000000000000000000000000000815260040161057a906119ef565b60405180910390fd5b600073ffffffffffffffffffffffffffffffffffffffff168160000160009054906101000a900473ffffffffffffffffffffffffffffffffffffffff1673ffffffffffffffffffffffffffffffffffffffff161415610617576040517f08c379a000000000000000000000000000000000000000000000000000000000815260040161060e9061180f565b60405180910390fd5b60006002600085815260200190815260200160002060003373ffffffffffffffffffffffffffffffffffffffff1673ffffffffffffffffffffffffffffffffffffffff16815260200190815260200160002054905060006002600086815260200190815260200160002060003373ffffffffffffffffffffffffffffffffffffffff1673ffffffffffffffffffffffffffffffffffffffff1681526020019081526020016000208190555060008373ffffffffffffffffffffffffffffffffffffffff16826040516106e89061176e565b60006040518083038185875af1925050503d8060008114610725576040519150601f19603f3d011682016040523d82523d6000602084013e61072a565b606091505b505090508061076e576040517f08c379a00000000000000000000000000000000000000000000000000000000081526004016107659061190f565b60405180910390fd5b3373ffffffffffffffffffffffffffffffffffffffff16857f21e12a7cad0da5928167e1084ea4d5fdf8d9af66657a2543a9ac76a0ca081477846040516107b59190611a2f565b60405180910390a35050505050565b600060016000838152602001908152602001600020604051806101000160405290816000820160009054906101000a900473ffffffffffffffffffffffffffffffffffffffff1673ffffffffffffffffffffffffffffffffffffffff1673ffffffffffffffffffffffffffffffffffffffff16815260200160018201805461084b90611bc4565b80601f016020809104026020016040519081016040528092919081815260200182805461087790611bc4565b80156108c45780601f10610899576101008083540402835291602001916108c4565b820191906000526020600020905b8154815290600101906020018083116108a757829003601f168201915b505050505081526020016002820180546108dd90611bc4565b80601f016020809104026020016040519081016040528092919081815260200182805461090990611bc4565b80156109565780601f1061092b57610100808354040283529160200191610956565b820191906000526020600020905b81548152906001019060200180831161093957829003601f168201915b50505050508152602001600382015481526020016004820154815260200160058201548152602001600682015481526020016007820160009054906101000a900460ff1615151515815250509050806000015173ffffffffffffffffffffffffffffffffffffffff163373ffffffffffffffffffffffffffffffffffffffff1614610a16576040517f08c379a0000000000000000000000000000000000000000000000000000000008152600401610a0d9061192f565b60405180910390fd5b8060a001514210610a5c576040517f08c379a0000000000000000000000000000000000000000000000000000000008152600401610a5390611a0f565b60405180910390fd5b60016000838152602001908152602001600020600080820160006101000a81549073ffffffffffffffffffffffffffffffffffffffff0219169055600182016000610aa791906111f9565b600282016000610ab791906111f9565b60038201600090556004820160009055600582016000905560068201600090556007820160006101000a81549060ff021916905550507f8bf30e7ff26833413be5f69e1d373744864d600b664204b4a2f9844a8eedb9ed82604051610b1c9190611a2f565b60405180910390a15050565b6002602052816000526040600020602052806000526040600020600091509150505481565b60006001600083815260200190815260200160002090508060000160009054906101000a900473ffffffffffffffffffffffffffffffffffffffff1673ffffffffffffffffffffffffffffffffffffffff163373ffffffffffffffffffffffffffffffffffffffff1614610bf6576040517f08c379a0000000000000000000000000000000000000000000000000000000008152600401610bed9061192f565b60405180910390fd5b80600601544211610c3c576040517f08c379a0000000000000000000000000000000000000000000000000000000008152600401610c339061184f565b60405180910390fd5b806004015481600301541015610c87576040517f08c379a0000000000000000000000000000000000000000000000000000000008152600401610c7e9061182f565b60405180910390fd5b8060070160009054906101000a900460ff1615610cd9576040517f08c379a0000000000000000000000000000000000000000000000000000000008152600401610cd0906118ef565b60405180910390fd5b60018160070160006101000a81548160ff0219169083151502179055506000816003015490506000826003018190555060008260000160009054906101000a900473ffffffffffffffffffffffffffffffffffffffff1673ffffffffffffffffffffffffffffffffffffffff1682604051610d539061176e565b60006040518083038185875af1925050503d8060008114610d90576040519150601f19603f3d011682016040523d82523d6000602084013e610d95565b606091505b5050905080610dd9576040517f08c379a0000000000000000000000000000000000000000000000000000000008152600401610dd0906118af565b60405180910390fd5b7f5b6b431d4476a211bb7d41c20d1aab9ae2321deee0d20be3d9fc9b1093fa6e3d84604051610e089190611a2f565b60405180910390a150505050565b42821015610e59576040517f08c379a0000000000000000000000000000000000000000000000000000000008152600401610e509061186f565b60405180910390fd5b81811015610e9c576040517f08c379a0000000000000000000000000000000000000000000000000000000008152600401610e939061198f565b60405180910390fd5b62278d0042610eab9190611ae4565b811115610eed576040517f08c379a0000000000000000000000000000000000000000000000000000000008152600401610ee49061188f565b60405180910390fd5b60008311610f30576040517f08c379a0000000000000000000000000000000000000000000000000000000008152600401610f27906119af565b60405180910390fd5b6032878790501115610f77576040517f08c379a0000000000000000000000000000000000000000000000000000000008152600401610f6e906119cf565b60405180910390fd5b6107d0858590501115610fbf576040517f08c379a0000000000000000000000000000000000000000000000000000000008152600401610fb69061196f565b60405180910390fd5b600080815480929190610fd190611bf6565b91905055506040518061010001604052803373ffffffffffffffffffffffffffffffffffffffff16815260200188888080601f016020809104026020016040519081016040528093929190818152602001838380828437600081840152601f19601f82011690508083019250505050505050815260200186868080601f016020809104026020016040519081016040528093929190818152602001838380828437600081840152601f19601f8201169050808301925050505050505081526020016000815260200184815260200183815260200182815260200160001515815250600160008054815260200190815260200160002060008201518160000160006101000a81548173ffffffffffffffffffffffffffffffffffffffff021916908373ffffffffffffffffffffffffffffffffffffffff1602179055506020820151816001019080519060200190611129929190611239565b506040820151816002019080519060200190611146929190611239565b50606082015181600301556080820151816004015560a0820151816005015560c0820151816006015560e08201518160070160006101000a81548160ff0219169083151502179055509050503373ffffffffffffffffffffffffffffffffffffffff167f2cba31aa2e0c472eb6dba6e465eebb0b2199b8b7100ec50b12afb5ec0402583a6000548989878a8a89896040516111e8989796959493929190611a4a565b60405180910390a250505050505050565b50805461120590611bc4565b6000825580601f106112175750611236565b601f01602090049060005260206000209081019061123591906112bf565b5b50565b82805461124590611bc4565b90600052602060002090601f01602090048101928261126757600085556112ae565b82601f1061128057805160ff19168380011785556112ae565b828001600101855582156112ae579182015b828111156112ad578251825591602001919060010190611292565b5b5090506112bb91906112bf565b5090565b5b808211156112d85760008160009055506001016112c0565b5090565b6000813590506112eb81611f6a565b92915050565b60008083601f84011261130357600080fd5b8235905067ffffffffffffffff81111561131c57600080fd5b60208301915083600182028301111561133457600080fd5b9250929050565b60008135905061134a81611f81565b92915050565b600080600080600080600060a0888a03121561136b57600080fd5b600088013567ffffffffffffffff81111561138557600080fd5b6113918a828b016112f1565b9750975050602088013567ffffffffffffffff8111156113b057600080fd5b6113bc8a828b016112f1565b955095505060406113cf8a828b0161133b565b93505060606113e08a828b0161133b565b92505060806113f18a828b0161133b565b91505092959891949750929550565b60006020828403121561141257600080fd5b60006114208482850161133b565b91505092915050565b6000806040838503121561143c57600080fd5b600061144a8582860161133b565b925050602061145b858286016112dc565b9150509250929050565b61146e81611b3a565b82525050565b61147d81611b4c565b82525050565b600061148f8385611ad3565b935061149c838584611b82565b6114a583611c9d565b840190509392505050565b60006114bb82611abd565b6114c58185611ad3565b93506114d5818560208601611b91565b6114de81611c9d565b840191505092915050565b60006114f6601783611ad3565b915061150182611cae565b602082019050919050565b6000611519601083611ad3565b915061152482611cd7565b602082019050919050565b600061153c600c83611ad3565b915061154782611d00565b602082019050919050565b600061155f601283611ad3565b915061156a82611d29565b602082019050919050565b6000611582601683611ad3565b915061158d82611d52565b602082019050919050565b60006115a5601483611ad3565b91506115b082611d7b565b602082019050919050565b60006115c8600983611ad3565b91506115d382611da4565b602082019050919050565b60006115eb600f83611ad3565b91506115f682611dcd565b602082019050919050565b600061160e601483611ad3565b915061161982611df6565b602082019050919050565b6000611631600983611ad3565b915061163c82611e1f565b602082019050919050565b6000611654600083611ac8565b915061165f82611e48565b600082019050919050565b6000611677600e83611ad3565b915061168282611e4b565b602082019050919050565b600061169a601483611ad3565b91506116a582611e74565b602082019050919050565b60006116bd601083611ad3565b91506116c882611e9d565b602082019050919050565b60006116e0601b83611ad3565b91506116eb82611ec6565b602082019050919050565b6000611703600e83611ad3565b915061170e82611eef565b602082019050919050565b6000611726601483611ad3565b915061173182611f18565b602082019050919050565b6000611749600b83611ad3565b915061175482611f41565b602082019050919050565b61176881611b78565b82525050565b600061177982611647565b9150819050919050565b600061010082019050611799600083018b611465565b81810360208301526117ab818a6114b0565b905081810360408301526117bf81896114b0565b90506117ce606083018861175f565b6117db608083018761175f565b6117e860a083018661175f565b6117f560c083018561175f565b61180260e0830184611474565b9998505050505050505050565b60006020820190508181036000830152611828816114e9565b9050919050565b600060208201905081810360008301526118488161150c565b9050919050565b600060208201905081810360008301526118688161152f565b9050919050565b6000602082019050818103600083015261188881611552565b9050919050565b600060208201905081810360008301526118a881611575565b9050919050565b600060208201905081810360008301526118c881611598565b9050919050565b600060208201905081810360008301526118e8816115bb565b9050919050565b60006020820190508181036000830152611908816115de565b9050919050565b6000602082019050818103600083015261192881611601565b9050919050565b6000602082019050818103600083015261194881611624565b9050919050565b600060208201905081810360008301526119688161166a565b9050919050565b600060208201905081810360008301526119888161168d565b9050919050565b600060208201905081810360008301526119a8816116b0565b9050919050565b600060208201905081810360008301526119c8816116d3565b9050919050565b600060208201905081810360008301526119e8816116f6565b9050919050565b60006020820190508181036000830152611a0881611719565b9050919050565b60006020820190508181036000830152611a288161173c565b9050919050565b6000602082019050611a44600083018461175f565b92915050565b600060c082019050611a5f600083018b61175f565b8181036020830152611a7281898b611483565b9050611a81604083018861175f565b8181036060830152611a94818688611483565b9050611aa3608083018561175f565b611ab060a083018461175f565b9998505050505050505050565b600081519050919050565b600081905092915050565b600082825260208201905092915050565b6000611aef82611b78565b9150611afa83611b78565b9250827fffffffffffffffffffffffffffffffffffffffffffffffffffffffffffffffff03821115611b2f57611b2e611c3f565b5b828201905092915050565b6000611b4582611b58565b9050919050565b60008115159050919050565b600073ffffffffffffffffffffffffffffffffffffffff82169050919050565b6000819050919050565b82818337600083830152505050565b60005b83811015611baf578082015181840152602081019050611b94565b83811115611bbe576000848401525b50505050565b60006002820490506001821680611bdc57607f821691505b60208210811415611bf057611bef611c6e565b5b50919050565b6000611c0182611b78565b91507fffffffffffffffffffffffffffffffffffffffffffffffffffffffffffffffff821415611c3457611c33611c3f565b5b600182019050919050565b7f4e487b7100000000000000000000000000000000000000000000000000000000600052601160045260246000fd5b7f4e487b7100000000000000000000000000000000000000000000000000000000600052602260045260246000fd5b6000601f19601f8301169050919050565b7f43616d706169676e20646f6573206e6f74206578697374000000000000000000600082015250565b7f4469646e2774206d65657420676f616c00000000000000000000000000000000600082015250565b7f4861736e277420656e6465640000000000000000000000000000000000000000600082015250565b7f496e76616c696420737461727420646174650000000000000000000000000000600082015250565b7f43616e6e6f7420676f2070617374203330206461797300000000000000000000600082015250565b7f4661696c656420746f2073656e64204574686572000000000000000000000000600082015250565b7f48617320656e6465640000000000000000000000000000000000000000000000600082015250565b7f416c726561647920636c61696d65640000000000000000000000000000000000600082015250565b7f4661696c656420746f2073656e64206574686572000000000000000000000000600082015250565b7f4e6f74206f776e65720000000000000000000000000000000000000000000000600082015250565b50565b7f4861736e27742073746172746564000000000000000000000000000000000000600082015250565b7f4465736372697074696f6e20746f6f206c6f6e67000000000000000000000000600082015250565b7f496e76616c696420656e64206461746500000000000000000000000000000000600082015250565b7f476f616c206d7573742062652067726561746572207468616e20300000000000600082015250565b7f5469746c6520746f6f206c6f6e67000000000000000000000000000000000000600082015250565b7f546f74616c206c657373207468616e20676f616c000000000000000000000000600082015250565b7f4861732073746172746564000000000000000000000000000000000000000000600082015250565b611f7381611b3a565b8114611f7e57600080fd5b50565b611f8a81611b78565b8114611f9557600080fd5b5056fea2646970667358221220a0b566087b6f38450e74a0d675f45f0a13c361c48e7bd051f9d49392e466aad264736f6c63430008040033",
  "linkReferences": {},
  "deployedLinkReferences": {}
}