{
  "_format": "hh-sol-artifact-1",
  "contractName": "CrowdGaming",
  "sourceName": "contracts/CrowdGaming.sol",
  "abi": [
    {
      "anonymous": false,
      "inputs": [
        {
          "indexed": false,
          "internalType": "uint256",
          "name": "id",
          "type": "uint256"
        }
      ],
      "name": "Cancel",
      "type": "event"
    },
    {
      "anonymous": false,
      "inputs": [
        {
          "indexed": false,
          "internalType": "uint256",
          "name": "id",
          "type": "uint256"
        },
        {
          "indexed": true,
          "internalType": "address",
          "name": "owner",
          "type": "address"
        },
        {
          "indexed": false,
          "internalType": "string",
          "name": "title",
          "type": "string"
        },
        {
          "indexed": false,
          "internalType": "uint256",
          "name": "goal",
          "type": "uint256"
        },
        {
          "indexed": false,
          "internalType": "string",
          "name": "description",
          "type": "string"
        },
        {
          "indexed": false,
          "internalType": "uint32",
          "name": "startAt",
          "type": "uint32"
        },
        {
          "indexed": false,
          "internalType": "uint32",
          "name": "endAt",
          "type": "uint32"
        }
      ],
      "name": "Launch",
      "type": "event"
    },
    {
      "anonymous": false,
      "inputs": [
        {
          "indexed": true,
          "internalType": "uint256",
          "name": "id",
          "type": "uint256"
        },
        {
          "indexed": true,
          "internalType": "address",
          "name": "pledger",
          "type": "address"
        },
        {
          "indexed": false,
          "internalType": "uint256",
          "name": "amount",
          "type": "uint256"
        }
      ],
      "name": "Pledge",
      "type": "event"
    },
    {
      "anonymous": false,
      "inputs": [
        {
          "indexed": true,
          "internalType": "uint256",
          "name": "id",
          "type": "uint256"
        },
        {
          "indexed": true,
          "internalType": "address",
          "name": "pledger",
          "type": "address"
        },
        {
          "indexed": false,
          "internalType": "uint256",
          "name": "amount",
          "type": "uint256"
        }
      ],
      "name": "Refund",
      "type": "event"
    },
    {
      "anonymous": false,
      "inputs": [
        {
          "indexed": false,
          "internalType": "uint256",
          "name": "id",
          "type": "uint256"
        }
      ],
      "name": "Withdraw",
      "type": "event"
    },
    {
      "inputs": [
        {
          "internalType": "uint256",
          "name": "",
          "type": "uint256"
        }
      ],
      "name": "campaigns",
      "outputs": [
        {
          "internalType": "address",
          "name": "owner",
          "type": "address"
        },
        {
          "internalType": "string",
          "name": "title",
          "type": "string"
        },
        {
          "internalType": "string",
          "name": "description",
          "type": "string"
        },
        {
          "internalType": "uint256",
          "name": "pledged",
          "type": "uint256"
        },
        {
          "internalType": "uint256",
          "name": "goal",
          "type": "uint256"
        },
        {
          "internalType": "uint32",
          "name": "startAt",
          "type": "uint32"
        },
        {
          "internalType": "uint32",
          "name": "endAt",
          "type": "uint32"
        },
        {
          "internalType": "bool",
          "name": "claimed",
          "type": "bool"
        }
      ],
      "stateMutability": "view",
      "type": "function"
    },
    {
      "inputs": [
        {
          "internalType": "uint256",
          "name": "_id",
          "type": "uint256"
        }
      ],
      "name": "cancelCampaign",
      "outputs": [],
      "stateMutability": "nonpayable",
      "type": "function"
    },
    {
      "inputs": [
        {
          "internalType": "string",
          "name": "_title",
          "type": "string"
        },
        {
          "internalType": "string",
          "name": "_description",
          "type": "string"
        },
        {
          "internalType": "uint256",
          "name": "_goal",
          "type": "uint256"
        },
        {
          "internalType": "uint32",
          "name": "_startAt",
          "type": "uint32"
        },
        {
          "internalType": "uint32",
          "name": "_endAt",
          "type": "uint32"
        }
      ],
      "name": "launchCampaign",
      "outputs": [],
      "stateMutability": "nonpayable",
      "type": "function"
    },
    {
      "inputs": [
        {
          "internalType": "uint256",
          "name": "_id",
          "type": "uint256"
        }
      ],
      "name": "pledgeTo",
      "outputs": [],
      "stateMutability": "payable",
      "type": "function"
    },
    {
      "inputs": [
        {
          "internalType": "uint256",
          "name": "",
          "type": "uint256"
        },
        {
          "internalType": "address",
          "name": "",
          "type": "address"
        }
      ],
      "name": "pledgedAmount",
      "outputs": [
        {
          "internalType": "uint256",
          "name": "",
          "type": "uint256"
        }
      ],
      "stateMutability": "view",
      "type": "function"
    },
    {
      "inputs": [
        {
          "internalType": "uint256",
          "name": "_id",
          "type": "uint256"
        }
      ],
      "name": "refund",
      "outputs": [],
      "stateMutability": "payable",
      "type": "function"
    },
    {
      "inputs": [],
      "name": "totalCampaigns",
      "outputs": [
        {
          "internalType": "uint256",
          "name": "",
          "type": "uint256"
        }
      ],
      "stateMutability": "view",
      "type": "function"
    },
    {
      "inputs": [
        {
          "internalType": "uint256",
          "name": "_id",
          "type": "uint256"
        }
      ],
      "name": "withdrawFrom",
      "outputs": [],
      "stateMutability": "payable",
      "type": "function"
    }
  ],
  "bytecode": "0x608060405234801561001057600080fd5b50611eab806100206000396000f3fe60806040526004361061007b5760003560e01c8063278ecde11161004e578063278ecde11461013457806345598b4a14610150578063aa4fb63a14610179578063e6dad824146101b65761007b565b806302932f56146100805780630caff08a146100ab578063141961bc146100d45780631f6dbc5014610118575b600080fd5b34801561008c57600080fd5b506100956101d2565b6040516100a291906118d7565b60405180910390f35b3480156100b757600080fd5b506100d260048036038101906100cd919061132b565b6101d8565b005b3480156100e057600080fd5b506100fb60048036038101906100f691906113d2565b6104b9565b60405161010f9897969594939291906116ab565b60405180910390f35b610132600480360381019061012d91906113d2565b61065e565b005b61014e600480360381019061014991906113d2565b61087e565b005b34801561015c57600080fd5b50610177600480360381019061017291906113d2565b610aed565b005b34801561018557600080fd5b506101a0600480360381019061019b91906113fb565b610ead565b6040516101ad91906118d7565b60405180910390f35b6101d060048036038101906101cb91906113d2565b610ed2565b005b60005481565b428263ffffffff161015610221576040517f08c379a000000000000000000000000000000000000000000000000000000000815260040161021890611777565b60405180910390fd5b8163ffffffff168163ffffffff161015610270576040517f08c379a000000000000000000000000000000000000000000000000000000000815260040161026790611877565b60405180910390fd5b62278d004261027f91906119de565b8163ffffffff1611156102c7576040517f08c379a00000000000000000000000000000000000000000000000000000000081526004016102be90611797565b60405180910390fd5b6000808154809291906102d990611b31565b91905055506040518061010001604052803373ffffffffffffffffffffffffffffffffffffffff168152602001868152602001858152602001600081526020018481526020018363ffffffff1681526020018263ffffffff16815260200160001515815250600160008054815260200190815260200160002060008201518160000160006101000a81548173ffffffffffffffffffffffffffffffffffffffff021916908373ffffffffffffffffffffffffffffffffffffffff16021790555060208201518160010190805190602001906103b59291906111a1565b5060408201518160020190805190602001906103d29291906111a1565b50606082015181600301556080820151816004015560a08201518160050160006101000a81548163ffffffff021916908363ffffffff16021790555060c08201518160050160046101000a81548163ffffffff021916908363ffffffff16021790555060e08201518160050160086101000a81548160ff0219169083151502179055509050503373ffffffffffffffffffffffffffffffffffffffff167f0c1f42855fee1b60c3b5e844d1afbf773f8134d497aef0c74712f80c901f0dfc60005487868887876040516104aa969594939291906118f2565b60405180910390a25050505050565b60016020528060005260406000206000915090508060000160009054906101000a900473ffffffffffffffffffffffffffffffffffffffff169080600101805461050290611ace565b80601f016020809104026020016040519081016040528092919081815260200182805461052e90611ace565b801561057b5780601f106105505761010080835404028352916020019161057b565b820191906000526020600020905b81548152906001019060200180831161055e57829003601f168201915b50505050509080600201805461059090611ace565b80601f01602080910402602001604051908101604052809291908181526020018280546105bc90611ace565b80156106095780601f106105de57610100808354040283529160200191610609565b820191906000526020600020905b8154815290600101906020018083116105ec57829003601f168201915b5050505050908060030154908060040154908060050160009054906101000a900463ffffffff16908060050160049054906101000a900463ffffffff16908060050160089054906101000a900460ff16905088565b600033905060006001600084815260200190815260200160002090508060050160009054906101000a900463ffffffff1663ffffffff164210156106d7576040517f08c379a00000000000000000000000000000000000000000000000000000000081526004016106ce90611857565b60405180910390fd5b8060050160049054906101000a900463ffffffff1663ffffffff16421115610734576040517f08c379a000000000000000000000000000000000000000000000000000000000815260040161072b906117d7565b60405180910390fd5b60008273ffffffffffffffffffffffffffffffffffffffff163460405161075a90611696565b60006040518083038185875af1925050503d8060008114610797576040519150601f19603f3d011682016040523d82523d6000602084013e61079c565b606091505b50509050801561082957348260030160008282546107ba91906119de565b92505081905550346002600086815260200190815260200160002060003373ffffffffffffffffffffffffffffffffffffffff1673ffffffffffffffffffffffffffffffffffffffff168152602001908152602001600020600082825461082191906119de565b925050819055505b3373ffffffffffffffffffffffffffffffffffffffff16847f06bdb975df800a73232998e71ed585d536222f1dfeaa622d7f62a23ada686c823460405161087091906118d7565b60405180910390a350505050565b600033905060006001600084815260200190815260200160002090508060050160049054906101000a900463ffffffff1663ffffffff1642116108f6576040517f08c379a00000000000000000000000000000000000000000000000000000000081526004016108ed90611757565b60405180910390fd5b8060040154816003015410610940576040517f08c379a000000000000000000000000000000000000000000000000000000000815260040161093790611897565b60405180910390fd5b60006002600085815260200190815260200160002060003373ffffffffffffffffffffffffffffffffffffffff1673ffffffffffffffffffffffffffffffffffffffff16815260200190815260200160002054905060006002600086815260200190815260200160002060003373ffffffffffffffffffffffffffffffffffffffff1673ffffffffffffffffffffffffffffffffffffffff1681526020019081526020016000208190555060008373ffffffffffffffffffffffffffffffffffffffff1682604051610a1190611696565b60006040518083038185875af1925050503d8060008114610a4e576040519150601f19603f3d011682016040523d82523d6000602084013e610a53565b606091505b5050905080610a97576040517f08c379a0000000000000000000000000000000000000000000000000000000008152600401610a8e90611817565b60405180910390fd5b3373ffffffffffffffffffffffffffffffffffffffff16857f21e12a7cad0da5928167e1084ea4d5fdf8d9af66657a2543a9ac76a0ca08147784604051610ade91906118d7565b60405180910390a35050505050565b600060016000838152602001908152602001600020604051806101000160405290816000820160009054906101000a900473ffffffffffffffffffffffffffffffffffffffff1673ffffffffffffffffffffffffffffffffffffffff1673ffffffffffffffffffffffffffffffffffffffff168152602001600182018054610b7490611ace565b80601f0160208091040260200160405190810160405280929190818152602001828054610ba090611ace565b8015610bed5780601f10610bc257610100808354040283529160200191610bed565b820191906000526020600020905b815481529060010190602001808311610bd057829003601f168201915b50505050508152602001600282018054610c0690611ace565b80601f0160208091040260200160405190810160405280929190818152602001828054610c3290611ace565b8015610c7f5780601f10610c5457610100808354040283529160200191610c7f565b820191906000526020600020905b815481529060010190602001808311610c6257829003601f168201915b5050505050815260200160038201548152602001600482015481526020016005820160009054906101000a900463ffffffff1663ffffffff1663ffffffff1681526020016005820160049054906101000a900463ffffffff1663ffffffff1663ffffffff1681526020016005820160089054906101000a900460ff1615151515815250509050806000015173ffffffffffffffffffffffffffffffffffffffff163373ffffffffffffffffffffffffffffffffffffffff1614610d77576040517f08c379a0000000000000000000000000000000000000000000000000000000008152600401610d6e90611837565b60405180910390fd5b8060a0015163ffffffff164210610dc3576040517f08c379a0000000000000000000000000000000000000000000000000000000008152600401610dba906118b7565b60405180910390fd5b60016000838152602001908152602001600020600080820160006101000a81549073ffffffffffffffffffffffffffffffffffffffff0219169055600182016000610e0e9190611227565b600282016000610e1e9190611227565b600382016000905560048201600090556005820160006101000a81549063ffffffff02191690556005820160046101000a81549063ffffffff02191690556005820160086101000a81549060ff021916905550507f8bf30e7ff26833413be5f69e1d373744864d600b664204b4a2f9844a8eedb9ed82604051610ea191906118d7565b60405180910390a15050565b6002602052816000526040600020602052806000526040600020600091509150505481565b60006001600083815260200190815260200160002090508060000160009054906101000a900473ffffffffffffffffffffffffffffffffffffffff1673ffffffffffffffffffffffffffffffffffffffff163373ffffffffffffffffffffffffffffffffffffffff1614610f7b576040517f08c379a0000000000000000000000000000000000000000000000000000000008152600401610f7290611837565b60405180910390fd5b8060050160049054906101000a900463ffffffff1663ffffffff164211610fd7576040517f08c379a0000000000000000000000000000000000000000000000000000000008152600401610fce90611757565b60405180910390fd5b806004015481600301541015611022576040517f08c379a000000000000000000000000000000000000000000000000000000000815260040161101990611737565b60405180910390fd5b8060050160089054906101000a900460ff1615611074576040517f08c379a000000000000000000000000000000000000000000000000000000000815260040161106b906117f7565b60405180910390fd5b60018160050160086101000a81548160ff02191690831515021790555060008160000160009054906101000a900473ffffffffffffffffffffffffffffffffffffffff1673ffffffffffffffffffffffffffffffffffffffff1682600301546040516110df90611696565b60006040518083038185875af1925050503d806000811461111c576040519150601f19603f3d011682016040523d82523d6000602084013e611121565b606091505b5050905080611165576040517f08c379a000000000000000000000000000000000000000000000000000000000815260040161115c906117b7565b60405180910390fd5b7f5b6b431d4476a211bb7d41c20d1aab9ae2321deee0d20be3d9fc9b1093fa6e3d8360405161119491906118d7565b60405180910390a1505050565b8280546111ad90611ace565b90600052602060002090601f0160209004810192826111cf5760008555611216565b82601f106111e857805160ff1916838001178555611216565b82800160010185558215611216579182015b828111156112155782518255916020019190600101906111fa565b5b5090506112239190611267565b5090565b50805461123390611ace565b6000825580601f106112455750611264565b601f0160209004906000526020600020908101906112639190611267565b5b50565b5b80821115611280576000816000905550600101611268565b5090565b600061129761129284611986565b611961565b9050828152602081018484840111156112af57600080fd5b6112ba848285611a8c565b509392505050565b6000813590506112d181611e30565b92915050565b600082601f8301126112e857600080fd5b81356112f8848260208601611284565b91505092915050565b60008135905061131081611e47565b92915050565b60008135905061132581611e5e565b92915050565b600080600080600060a0868803121561134357600080fd5b600086013567ffffffffffffffff81111561135d57600080fd5b611369888289016112d7565b955050602086013567ffffffffffffffff81111561138657600080fd5b611392888289016112d7565b94505060406113a388828901611301565b93505060606113b488828901611316565b92505060806113c588828901611316565b9150509295509295909350565b6000602082840312156113e457600080fd5b60006113f284828501611301565b91505092915050565b6000806040838503121561140e57600080fd5b600061141c85828601611301565b925050602061142d858286016112c2565b9150509250929050565b61144081611a34565b82525050565b61144f81611a46565b82525050565b6000611460826119b7565b61146a81856119cd565b935061147a818560208601611a9b565b61148381611c07565b840191505092915050565b600061149b6010836119cd565b91506114a682611c18565b602082019050919050565b60006114be600c836119cd565b91506114c982611c41565b602082019050919050565b60006114e16012836119cd565b91506114ec82611c6a565b602082019050919050565b60006115046016836119cd565b915061150f82611c93565b602082019050919050565b60006115276014836119cd565b915061153282611cbc565b602082019050919050565b600061154a6009836119cd565b915061155582611ce5565b602082019050919050565b600061156d600f836119cd565b915061157882611d0e565b602082019050919050565b60006115906014836119cd565b915061159b82611d37565b602082019050919050565b60006115b36009836119cd565b91506115be82611d60565b602082019050919050565b60006115d66000836119c2565b91506115e182611d89565b600082019050919050565b60006115f9600e836119cd565b915061160482611d8c565b602082019050919050565b600061161c6010836119cd565b915061162782611db5565b602082019050919050565b600061163f6014836119cd565b915061164a82611dde565b602082019050919050565b6000611662600b836119cd565b915061166d82611e07565b602082019050919050565b61168181611a72565b82525050565b61169081611a7c565b82525050565b60006116a1826115c9565b9150819050919050565b6000610100820190506116c1600083018b611437565b81810360208301526116d3818a611455565b905081810360408301526116e78189611455565b90506116f66060830188611678565b6117036080830187611678565b61171060a0830186611687565b61171d60c0830185611687565b61172a60e0830184611446565b9998505050505050505050565b600060208201905081810360008301526117508161148e565b9050919050565b60006020820190508181036000830152611770816114b1565b9050919050565b60006020820190508181036000830152611790816114d4565b9050919050565b600060208201905081810360008301526117b0816114f7565b9050919050565b600060208201905081810360008301526117d08161151a565b9050919050565b600060208201905081810360008301526117f08161153d565b9050919050565b6000602082019050818103600083015261181081611560565b9050919050565b6000602082019050818103600083015261183081611583565b9050919050565b60006020820190508181036000830152611850816115a6565b9050919050565b60006020820190508181036000830152611870816115ec565b9050919050565b600060208201905081810360008301526118908161160f565b9050919050565b600060208201905081810360008301526118b081611632565b9050919050565b600060208201905081810360008301526118d081611655565b9050919050565b60006020820190506118ec6000830184611678565b92915050565b600060c0820190506119076000830189611678565b81810360208301526119198188611455565b90506119286040830187611678565b818103606083015261193a8186611455565b90506119496080830185611687565b61195660a0830184611687565b979650505050505050565b600061196b61197c565b90506119778282611b00565b919050565b6000604051905090565b600067ffffffffffffffff8211156119a1576119a0611bd8565b5b6119aa82611c07565b9050602081019050919050565b600081519050919050565b600081905092915050565b600082825260208201905092915050565b60006119e982611a72565b91506119f483611a72565b9250827fffffffffffffffffffffffffffffffffffffffffffffffffffffffffffffffff03821115611a2957611a28611b7a565b5b828201905092915050565b6000611a3f82611a52565b9050919050565b60008115159050919050565b600073ffffffffffffffffffffffffffffffffffffffff82169050919050565b6000819050919050565b600063ffffffff82169050919050565b82818337600083830152505050565b60005b83811015611ab9578082015181840152602081019050611a9e565b83811115611ac8576000848401525b50505050565b60006002820490506001821680611ae657607f821691505b60208210811415611afa57611af9611ba9565b5b50919050565b611b0982611c07565b810181811067ffffffffffffffff82111715611b2857611b27611bd8565b5b80604052505050565b6000611b3c82611a72565b91507fffffffffffffffffffffffffffffffffffffffffffffffffffffffffffffffff821415611b6f57611b6e611b7a565b5b600182019050919050565b7f4e487b7100000000000000000000000000000000000000000000000000000000600052601160045260246000fd5b7f4e487b7100000000000000000000000000000000000000000000000000000000600052602260045260246000fd5b7f4e487b7100000000000000000000000000000000000000000000000000000000600052604160045260246000fd5b6000601f19601f8301169050919050565b7f4469646e2774206d65657420676f616c00000000000000000000000000000000600082015250565b7f4861736e277420656e6465640000000000000000000000000000000000000000600082015250565b7f496e76616c696420737461727420646174650000000000000000000000000000600082015250565b7f43616e6e6f7420676f2070617374203330206461797300000000000000000000600082015250565b7f4661696c656420746f2073656e64204574686572000000000000000000000000600082015250565b7f48617320656e6465640000000000000000000000000000000000000000000000600082015250565b7f416c726561647920636c61696d65640000000000000000000000000000000000600082015250565b7f4661696c656420746f2073656e64206574686572000000000000000000000000600082015250565b7f4e6f74206f776e65720000000000000000000000000000000000000000000000600082015250565b50565b7f4861736e27742073746172746564000000000000000000000000000000000000600082015250565b7f496e76616c696420656e64206461746500000000000000000000000000000000600082015250565b7f546f74616c206c657373207468616e20676f616c000000000000000000000000600082015250565b7f4861732073746172746564000000000000000000000000000000000000000000600082015250565b611e3981611a34565b8114611e4457600080fd5b50565b611e5081611a72565b8114611e5b57600080fd5b50565b611e6781611a7c565b8114611e7257600080fd5b5056fea2646970667358221220d57f20f7c378e89b46f9875e7a7c23092fb6bec4e6fef8e35ba8118b3f1a934f64736f6c63430008040033",
  "linkReferences": {},
  "deployedLinkReferences": {}
}