{
  "_format": "hh-sol-artifact-1",
  "contractName": "CrowdGaming",
  "sourceName": "contracts/CrowdGaming.sol",
  "abi": [
    {
      "anonymous": false,
      "inputs": [
        {
          "indexed": false,
          "internalType": "uint256",
          "name": "id",
          "type": "uint256"
        }
      ],
      "name": "Cancel",
      "type": "event"
    },
    {
      "anonymous": false,
      "inputs": [
        {
          "indexed": false,
          "internalType": "uint256",
          "name": "id",
          "type": "uint256"
        },
        {
          "indexed": true,
          "internalType": "address",
          "name": "owner",
          "type": "address"
        },
        {
          "indexed": false,
          "internalType": "string",
          "name": "title",
          "type": "string"
        },
        {
          "indexed": false,
          "internalType": "uint256",
          "name": "goal",
          "type": "uint256"
        },
        {
          "indexed": false,
          "internalType": "string",
          "name": "description",
          "type": "string"
        },
        {
          "indexed": false,
          "internalType": "uint32",
          "name": "startAt",
          "type": "uint32"
        },
        {
          "indexed": false,
          "internalType": "uint32",
          "name": "endAt",
          "type": "uint32"
        }
      ],
      "name": "Launch",
      "type": "event"
    },
    {
      "anonymous": false,
      "inputs": [
        {
          "indexed": true,
          "internalType": "uint256",
          "name": "id",
          "type": "uint256"
        },
        {
          "indexed": true,
          "internalType": "address",
          "name": "pledger",
          "type": "address"
        },
        {
          "indexed": false,
          "internalType": "uint256",
          "name": "amount",
          "type": "uint256"
        }
      ],
      "name": "Pledge",
      "type": "event"
    },
    {
      "anonymous": false,
      "inputs": [
        {
          "indexed": true,
          "internalType": "uint256",
          "name": "id",
          "type": "uint256"
        },
        {
          "indexed": true,
          "internalType": "address",
          "name": "pledger",
          "type": "address"
        },
        {
          "indexed": false,
          "internalType": "uint256",
          "name": "amount",
          "type": "uint256"
        }
      ],
      "name": "Refund",
      "type": "event"
    },
    {
      "anonymous": false,
      "inputs": [
        {
          "indexed": false,
          "internalType": "uint256",
          "name": "id",
          "type": "uint256"
        }
      ],
      "name": "Withdraw",
      "type": "event"
    },
    {
      "inputs": [
        {
          "internalType": "uint256",
          "name": "",
          "type": "uint256"
        }
      ],
      "name": "campaigns",
      "outputs": [
        {
          "internalType": "address",
          "name": "owner",
          "type": "address"
        },
        {
          "internalType": "string",
          "name": "title",
          "type": "string"
        },
        {
          "internalType": "string",
          "name": "description",
          "type": "string"
        },
        {
          "internalType": "uint256",
          "name": "pledged",
          "type": "uint256"
        },
        {
          "internalType": "uint256",
          "name": "goal",
          "type": "uint256"
        },
        {
          "internalType": "uint32",
          "name": "startAt",
          "type": "uint32"
        },
        {
          "internalType": "uint32",
          "name": "endAt",
          "type": "uint32"
        },
        {
          "internalType": "bool",
          "name": "claimed",
          "type": "bool"
        }
      ],
      "stateMutability": "view",
      "type": "function"
    },
    {
      "inputs": [
        {
          "internalType": "uint256",
          "name": "_id",
          "type": "uint256"
        }
      ],
      "name": "cancelCampaign",
      "outputs": [],
      "stateMutability": "nonpayable",
      "type": "function"
    },
    {
      "inputs": [
        {
          "internalType": "string",
          "name": "_title",
          "type": "string"
        },
        {
          "internalType": "string",
          "name": "_description",
          "type": "string"
        },
        {
          "internalType": "uint256",
          "name": "_goal",
          "type": "uint256"
        },
        {
          "internalType": "uint32",
          "name": "_startAt",
          "type": "uint32"
        },
        {
          "internalType": "uint32",
          "name": "_endAt",
          "type": "uint32"
        }
      ],
      "name": "launchCampaign",
      "outputs": [],
      "stateMutability": "nonpayable",
      "type": "function"
    },
    {
      "inputs": [
        {
          "internalType": "uint256",
          "name": "_id",
          "type": "uint256"
        }
      ],
      "name": "pledgeTo",
      "outputs": [],
      "stateMutability": "payable",
      "type": "function"
    },
    {
      "inputs": [
        {
          "internalType": "uint256",
          "name": "",
          "type": "uint256"
        },
        {
          "internalType": "address",
          "name": "",
          "type": "address"
        }
      ],
      "name": "pledgedAmount",
      "outputs": [
        {
          "internalType": "uint256",
          "name": "",
          "type": "uint256"
        }
      ],
      "stateMutability": "view",
      "type": "function"
    },
    {
      "inputs": [
        {
          "internalType": "uint256",
          "name": "_id",
          "type": "uint256"
        }
      ],
      "name": "refund",
      "outputs": [],
      "stateMutability": "payable",
      "type": "function"
    },
    {
      "inputs": [],
      "name": "totalCampaigns",
      "outputs": [
        {
          "internalType": "uint256",
          "name": "",
          "type": "uint256"
        }
      ],
      "stateMutability": "view",
      "type": "function"
    },
    {
      "inputs": [
        {
          "internalType": "uint256",
          "name": "_id",
          "type": "uint256"
        }
      ],
      "name": "withdrawFrom",
      "outputs": [],
      "stateMutability": "payable",
      "type": "function"
    }
  ],
  "bytecode": "0x608060405234801561001057600080fd5b506122ef806100206000396000f3fe60806040526004361061007b5760003560e01c8063278ecde11161004e578063278ecde11461013457806345598b4a14610150578063aa4fb63a14610179578063e6dad824146101b65761007b565b806302932f56146100805780630caff08a146100ab578063141961bc146100d45780631f6dbc5014610118575b600080fd5b34801561008c57600080fd5b506100956101d2565b6040516100a29190611c77565b60405180910390f35b3480156100b757600080fd5b506100d260048036038101906100cd91906115bf565b6101d8565b005b3480156100e057600080fd5b506100fb60048036038101906100f69190611666565b610587565b60405161010f9897969594939291906119cb565b60405180910390f35b610132600480360381019061012d9190611666565b61072c565b005b61014e60048036038101906101499190611666565b610966565b005b34801561015c57600080fd5b5061017760048036038101906101729190611666565b610c69565b005b34801561018557600080fd5b506101a0600480360381019061019b919061168f565b61109d565b6040516101ad9190611c77565b60405180910390f35b6101d060048036038101906101cb9190611666565b6110c2565b005b60005481565b428263ffffffff161015610221576040517f08c379a000000000000000000000000000000000000000000000000000000000815260040161021890611ab7565b60405180910390fd5b8163ffffffff168163ffffffff161015610270576040517f08c379a000000000000000000000000000000000000000000000000000000000815260040161026790611bd7565b60405180910390fd5b62278d004261027f9190611d7e565b8163ffffffff1611156102c7576040517f08c379a00000000000000000000000000000000000000000000000000000000081526004016102be90611ad7565b60405180910390fd5b6000831161030a576040517f08c379a000000000000000000000000000000000000000000000000000000000815260040161030190611bf7565b60405180910390fd5b60328551111561034f576040517f08c379a000000000000000000000000000000000000000000000000000000000815260040161034690611c17565b60405180910390fd5b6107d084511115610395576040517f08c379a000000000000000000000000000000000000000000000000000000000815260040161038c90611bb7565b60405180910390fd5b6000808154809291906103a790611ed1565b91905055506040518061010001604052803373ffffffffffffffffffffffffffffffffffffffff168152602001868152602001858152602001600081526020018481526020018363ffffffff1681526020018263ffffffff16815260200160001515815250600160008054815260200190815260200160002060008201518160000160006101000a81548173ffffffffffffffffffffffffffffffffffffffff021916908373ffffffffffffffffffffffffffffffffffffffff1602179055506020820151816001019080519060200190610483929190611435565b5060408201518160020190805190602001906104a0929190611435565b50606082015181600301556080820151816004015560a08201518160050160006101000a81548163ffffffff021916908363ffffffff16021790555060c08201518160050160046101000a81548163ffffffff021916908363ffffffff16021790555060e08201518160050160086101000a81548160ff0219169083151502179055509050503373ffffffffffffffffffffffffffffffffffffffff167f0c1f42855fee1b60c3b5e844d1afbf773f8134d497aef0c74712f80c901f0dfc600054878688878760405161057896959493929190611c92565b60405180910390a25050505050565b60016020528060005260406000206000915090508060000160009054906101000a900473ffffffffffffffffffffffffffffffffffffffff16908060010180546105d090611e6e565b80601f01602080910402602001604051908101604052809291908181526020018280546105fc90611e6e565b80156106495780601f1061061e57610100808354040283529160200191610649565b820191906000526020600020905b81548152906001019060200180831161062c57829003601f168201915b50505050509080600201805461065e90611e6e565b80601f016020809104026020016040519081016040528092919081815260200182805461068a90611e6e565b80156106d75780601f106106ac576101008083540402835291602001916106d7565b820191906000526020600020905b8154815290600101906020018083116106ba57829003601f168201915b5050505050908060030154908060040154908060050160009054906101000a900463ffffffff16908060050160049054906101000a900463ffffffff16908060050160089054906101000a900460ff16905088565b60006001600083815260200190815260200160002090508060050160009054906101000a900463ffffffff1663ffffffff164210156107a0576040517f08c379a000000000000000000000000000000000000000000000000000000000815260040161079790611b97565b60405180910390fd5b8060050160049054906101000a900463ffffffff1663ffffffff164211156107fd576040517f08c379a00000000000000000000000000000000000000000000000000000000081526004016107f490611b17565b60405180910390fd5b600073ffffffffffffffffffffffffffffffffffffffff168160000160009054906101000a900473ffffffffffffffffffffffffffffffffffffffff1673ffffffffffffffffffffffffffffffffffffffff161415610891576040517f08c379a000000000000000000000000000000000000000000000000000000000815260040161088890611a57565b60405180910390fd5b348160030160008282546108a59190611d7e565b92505081905550346002600084815260200190815260200160002060003373ffffffffffffffffffffffffffffffffffffffff1673ffffffffffffffffffffffffffffffffffffffff168152602001908152602001600020600082825461090c9190611d7e565b925050819055503373ffffffffffffffffffffffffffffffffffffffff16827f06bdb975df800a73232998e71ed585d536222f1dfeaa622d7f62a23ada686c823460405161095a9190611c77565b60405180910390a35050565b600033905060006001600084815260200190815260200160002090508060050160049054906101000a900463ffffffff1663ffffffff1642116109de576040517f08c379a00000000000000000000000000000000000000000000000000000000081526004016109d590611a97565b60405180910390fd5b8060040154816003015410610a28576040517f08c379a0000000000000000000000000000000000000000000000000000000008152600401610a1f90611c37565b60405180910390fd5b600073ffffffffffffffffffffffffffffffffffffffff168160000160009054906101000a900473ffffffffffffffffffffffffffffffffffffffff1673ffffffffffffffffffffffffffffffffffffffff161415610abc576040517f08c379a0000000000000000000000000000000000000000000000000000000008152600401610ab390611a57565b60405180910390fd5b60006002600085815260200190815260200160002060003373ffffffffffffffffffffffffffffffffffffffff1673ffffffffffffffffffffffffffffffffffffffff16815260200190815260200160002054905060006002600086815260200190815260200160002060003373ffffffffffffffffffffffffffffffffffffffff1673ffffffffffffffffffffffffffffffffffffffff1681526020019081526020016000208190555060008373ffffffffffffffffffffffffffffffffffffffff1682604051610b8d906119b6565b60006040518083038185875af1925050503d8060008114610bca576040519150601f19603f3d011682016040523d82523d6000602084013e610bcf565b606091505b5050905080610c13576040517f08c379a0000000000000000000000000000000000000000000000000000000008152600401610c0a90611b57565b60405180910390fd5b3373ffffffffffffffffffffffffffffffffffffffff16857f21e12a7cad0da5928167e1084ea4d5fdf8d9af66657a2543a9ac76a0ca08147784604051610c5a9190611c77565b60405180910390a35050505050565b600060016000838152602001908152602001600020604051806101000160405290816000820160009054906101000a900473ffffffffffffffffffffffffffffffffffffffff1673ffffffffffffffffffffffffffffffffffffffff1673ffffffffffffffffffffffffffffffffffffffff168152602001600182018054610cf090611e6e565b80601f0160208091040260200160405190810160405280929190818152602001828054610d1c90611e6e565b8015610d695780601f10610d3e57610100808354040283529160200191610d69565b820191906000526020600020905b815481529060010190602001808311610d4c57829003601f168201915b50505050508152602001600282018054610d8290611e6e565b80601f0160208091040260200160405190810160405280929190818152602001828054610dae90611e6e565b8015610dfb5780601f10610dd057610100808354040283529160200191610dfb565b820191906000526020600020905b815481529060010190602001808311610dde57829003601f168201915b5050505050815260200160038201548152602001600482015481526020016005820160009054906101000a900463ffffffff1663ffffffff1663ffffffff1681526020016005820160049054906101000a900463ffffffff1663ffffffff1663ffffffff1681526020016005820160089054906101000a900460ff1615151515815250509050806000015173ffffffffffffffffffffffffffffffffffffffff163373ffffffffffffffffffffffffffffffffffffffff1614610ef3576040517f08c379a0000000000000000000000000000000000000000000000000000000008152600401610eea90611b77565b60405180910390fd5b600073ffffffffffffffffffffffffffffffffffffffff16816000015173ffffffffffffffffffffffffffffffffffffffff161415610f67576040517f08c379a0000000000000000000000000000000000000000000000000000000008152600401610f5e90611a57565b60405180910390fd5b8060a0015163ffffffff164210610fb3576040517f08c379a0000000000000000000000000000000000000000000000000000000008152600401610faa90611c57565b60405180910390fd5b60016000838152602001908152602001600020600080820160006101000a81549073ffffffffffffffffffffffffffffffffffffffff0219169055600182016000610ffe91906114bb565b60028201600061100e91906114bb565b600382016000905560048201600090556005820160006101000a81549063ffffffff02191690556005820160046101000a81549063ffffffff02191690556005820160086101000a81549060ff021916905550507f8bf30e7ff26833413be5f69e1d373744864d600b664204b4a2f9844a8eedb9ed826040516110919190611c77565b60405180910390a15050565b6002602052816000526040600020602052806000526040600020600091509150505481565b60006001600083815260200190815260200160002090508060000160009054906101000a900473ffffffffffffffffffffffffffffffffffffffff1673ffffffffffffffffffffffffffffffffffffffff163373ffffffffffffffffffffffffffffffffffffffff161461116b576040517f08c379a000000000000000000000000000000000000000000000000000000000815260040161116290611b77565b60405180910390fd5b8060050160049054906101000a900463ffffffff1663ffffffff1642116111c7576040517f08c379a00000000000000000000000000000000000000000000000000000000081526004016111be90611a97565b60405180910390fd5b806004015481600301541015611212576040517f08c379a000000000000000000000000000000000000000000000000000000000815260040161120990611a77565b60405180910390fd5b8060050160089054906101000a900460ff1615611264576040517f08c379a000000000000000000000000000000000000000000000000000000000815260040161125b90611b37565b60405180910390fd5b600073ffffffffffffffffffffffffffffffffffffffff168160000160009054906101000a900473ffffffffffffffffffffffffffffffffffffffff1673ffffffffffffffffffffffffffffffffffffffff1614156112f8576040517f08c379a00000000000000000000000000000000000000000000000000000000081526004016112ef90611a57565b60405180910390fd5b60018160050160086101000a81548160ff0219169083151502179055506000816003015490506000826003018190555060008260000160009054906101000a900473ffffffffffffffffffffffffffffffffffffffff1673ffffffffffffffffffffffffffffffffffffffff1682604051611372906119b6565b60006040518083038185875af1925050503d80600081146113af576040519150601f19603f3d011682016040523d82523d6000602084013e6113b4565b606091505b50509050806113f8576040517f08c379a00000000000000000000000000000000000000000000000000000000081526004016113ef90611af7565b60405180910390fd5b7f5b6b431d4476a211bb7d41c20d1aab9ae2321deee0d20be3d9fc9b1093fa6e3d846040516114279190611c77565b60405180910390a150505050565b82805461144190611e6e565b90600052602060002090601f01602090048101928261146357600085556114aa565b82601f1061147c57805160ff19168380011785556114aa565b828001600101855582156114aa579182015b828111156114a957825182559160200191906001019061148e565b5b5090506114b791906114fb565b5090565b5080546114c790611e6e565b6000825580601f106114d957506114f8565b601f0160209004906000526020600020908101906114f791906114fb565b5b50565b5b808211156115145760008160009055506001016114fc565b5090565b600061152b61152684611d26565b611d01565b90508281526020810184848401111561154357600080fd5b61154e848285611e2c565b509392505050565b60008135905061156581612274565b92915050565b600082601f83011261157c57600080fd5b813561158c848260208601611518565b91505092915050565b6000813590506115a48161228b565b92915050565b6000813590506115b9816122a2565b92915050565b600080600080600060a086880312156115d757600080fd5b600086013567ffffffffffffffff8111156115f157600080fd5b6115fd8882890161156b565b955050602086013567ffffffffffffffff81111561161a57600080fd5b6116268882890161156b565b945050604061163788828901611595565b9350506060611648888289016115aa565b9250506080611659888289016115aa565b9150509295509295909350565b60006020828403121561167857600080fd5b600061168684828501611595565b91505092915050565b600080604083850312156116a257600080fd5b60006116b085828601611595565b92505060206116c185828601611556565b9150509250929050565b6116d481611dd4565b82525050565b6116e381611de6565b82525050565b60006116f482611d57565b6116fe8185611d6d565b935061170e818560208601611e3b565b61171781611fa7565b840191505092915050565b600061172f601783611d6d565b915061173a82611fb8565b602082019050919050565b6000611752601083611d6d565b915061175d82611fe1565b602082019050919050565b6000611775600c83611d6d565b91506117808261200a565b602082019050919050565b6000611798601283611d6d565b91506117a382612033565b602082019050919050565b60006117bb601683611d6d565b91506117c68261205c565b602082019050919050565b60006117de601483611d6d565b91506117e982612085565b602082019050919050565b6000611801600983611d6d565b915061180c826120ae565b602082019050919050565b6000611824600f83611d6d565b915061182f826120d7565b602082019050919050565b6000611847601483611d6d565b915061185282612100565b602082019050919050565b600061186a600983611d6d565b915061187582612129565b602082019050919050565b600061188d600083611d62565b915061189882612152565b600082019050919050565b60006118b0600e83611d6d565b91506118bb82612155565b602082019050919050565b60006118d3601483611d6d565b91506118de8261217e565b602082019050919050565b60006118f6601083611d6d565b9150611901826121a7565b602082019050919050565b6000611919601b83611d6d565b9150611924826121d0565b602082019050919050565b600061193c600e83611d6d565b9150611947826121f9565b602082019050919050565b600061195f601483611d6d565b915061196a82612222565b602082019050919050565b6000611982600b83611d6d565b915061198d8261224b565b602082019050919050565b6119a181611e12565b82525050565b6119b081611e1c565b82525050565b60006119c182611880565b9150819050919050565b6000610100820190506119e1600083018b6116cb565b81810360208301526119f3818a6116e9565b90508181036040830152611a0781896116e9565b9050611a166060830188611998565b611a236080830187611998565b611a3060a08301866119a7565b611a3d60c08301856119a7565b611a4a60e08301846116da565b9998505050505050505050565b60006020820190508181036000830152611a7081611722565b9050919050565b60006020820190508181036000830152611a9081611745565b9050919050565b60006020820190508181036000830152611ab081611768565b9050919050565b60006020820190508181036000830152611ad08161178b565b9050919050565b60006020820190508181036000830152611af0816117ae565b9050919050565b60006020820190508181036000830152611b10816117d1565b9050919050565b60006020820190508181036000830152611b30816117f4565b9050919050565b60006020820190508181036000830152611b5081611817565b9050919050565b60006020820190508181036000830152611b708161183a565b9050919050565b60006020820190508181036000830152611b908161185d565b9050919050565b60006020820190508181036000830152611bb0816118a3565b9050919050565b60006020820190508181036000830152611bd0816118c6565b9050919050565b60006020820190508181036000830152611bf0816118e9565b9050919050565b60006020820190508181036000830152611c108161190c565b9050919050565b60006020820190508181036000830152611c308161192f565b9050919050565b60006020820190508181036000830152611c5081611952565b9050919050565b60006020820190508181036000830152611c7081611975565b9050919050565b6000602082019050611c8c6000830184611998565b92915050565b600060c082019050611ca76000830189611998565b8181036020830152611cb981886116e9565b9050611cc86040830187611998565b8181036060830152611cda81866116e9565b9050611ce960808301856119a7565b611cf660a08301846119a7565b979650505050505050565b6000611d0b611d1c565b9050611d178282611ea0565b919050565b6000604051905090565b600067ffffffffffffffff821115611d4157611d40611f78565b5b611d4a82611fa7565b9050602081019050919050565b600081519050919050565b600081905092915050565b600082825260208201905092915050565b6000611d8982611e12565b9150611d9483611e12565b9250827fffffffffffffffffffffffffffffffffffffffffffffffffffffffffffffffff03821115611dc957611dc8611f1a565b5b828201905092915050565b6000611ddf82611df2565b9050919050565b60008115159050919050565b600073ffffffffffffffffffffffffffffffffffffffff82169050919050565b6000819050919050565b600063ffffffff82169050919050565b82818337600083830152505050565b60005b83811015611e59578082015181840152602081019050611e3e565b83811115611e68576000848401525b50505050565b60006002820490506001821680611e8657607f821691505b60208210811415611e9a57611e99611f49565b5b50919050565b611ea982611fa7565b810181811067ffffffffffffffff82111715611ec857611ec7611f78565b5b80604052505050565b6000611edc82611e12565b91507fffffffffffffffffffffffffffffffffffffffffffffffffffffffffffffffff821415611f0f57611f0e611f1a565b5b600182019050919050565b7f4e487b7100000000000000000000000000000000000000000000000000000000600052601160045260246000fd5b7f4e487b7100000000000000000000000000000000000000000000000000000000600052602260045260246000fd5b7f4e487b7100000000000000000000000000000000000000000000000000000000600052604160045260246000fd5b6000601f19601f8301169050919050565b7f43616d706169676e20646f6573206e6f74206578697374000000000000000000600082015250565b7f4469646e2774206d65657420676f616c00000000000000000000000000000000600082015250565b7f4861736e277420656e6465640000000000000000000000000000000000000000600082015250565b7f496e76616c696420737461727420646174650000000000000000000000000000600082015250565b7f43616e6e6f7420676f2070617374203330206461797300000000000000000000600082015250565b7f4661696c656420746f2073656e64204574686572000000000000000000000000600082015250565b7f48617320656e6465640000000000000000000000000000000000000000000000600082015250565b7f416c726561647920636c61696d65640000000000000000000000000000000000600082015250565b7f4661696c656420746f2073656e64206574686572000000000000000000000000600082015250565b7f4e6f74206f776e65720000000000000000000000000000000000000000000000600082015250565b50565b7f4861736e27742073746172746564000000000000000000000000000000000000600082015250565b7f4465736372697074696f6e20746f6f206c6f6e67000000000000000000000000600082015250565b7f496e76616c696420656e64206461746500000000000000000000000000000000600082015250565b7f476f616c206d7573742062652067726561746572207468616e20300000000000600082015250565b7f5469746c6520746f6f206c6f6e67000000000000000000000000000000000000600082015250565b7f546f74616c206c657373207468616e20676f616c000000000000000000000000600082015250565b7f4861732073746172746564000000000000000000000000000000000000000000600082015250565b61227d81611dd4565b811461228857600080fd5b50565b61229481611e12565b811461229f57600080fd5b50565b6122ab81611e1c565b81146122b657600080fd5b5056fea26469706673582212208db4580200284e2bc2ca03ef245e3fdfdb6fcf8cce4653cfc7be8cae8301ae3e64736f6c63430008040033",
  "linkReferences": {},
  "deployedLinkReferences": {}
}