{
  "_format": "hh-sol-artifact-1",
  "contractName": "CrowdGaming",
  "sourceName": "contracts/CrowdGaming.sol",
  "abi": [
    {
      "anonymous": false,
      "inputs": [
        {
          "indexed": false,
          "internalType": "uint256",
          "name": "id",
          "type": "uint256"
        }
      ],
      "name": "Cancel",
      "type": "event"
    },
    {
      "anonymous": false,
      "inputs": [
        {
          "indexed": false,
          "internalType": "uint256",
          "name": "id",
          "type": "uint256"
        },
        {
          "indexed": true,
          "internalType": "address",
          "name": "owner",
          "type": "address"
        },
        {
          "indexed": false,
          "internalType": "string",
          "name": "title",
          "type": "string"
        },
        {
          "indexed": false,
          "internalType": "uint256",
          "name": "goal",
          "type": "uint256"
        },
        {
          "indexed": false,
          "internalType": "string",
          "name": "description",
          "type": "string"
        },
        {
          "indexed": false,
          "internalType": "uint256",
          "name": "startAt",
          "type": "uint256"
        },
        {
          "indexed": false,
          "internalType": "uint256",
          "name": "endAt",
          "type": "uint256"
        }
      ],
      "name": "Launch",
      "type": "event"
    },
    {
      "anonymous": false,
      "inputs": [
        {
          "indexed": true,
          "internalType": "uint256",
          "name": "id",
          "type": "uint256"
        },
        {
          "indexed": true,
          "internalType": "address",
          "name": "pledger",
          "type": "address"
        },
        {
          "indexed": false,
          "internalType": "uint256",
          "name": "amount",
          "type": "uint256"
        }
      ],
      "name": "Pledge",
      "type": "event"
    },
    {
      "anonymous": false,
      "inputs": [
        {
          "indexed": true,
          "internalType": "uint256",
          "name": "id",
          "type": "uint256"
        },
        {
          "indexed": true,
          "internalType": "address",
          "name": "pledger",
          "type": "address"
        },
        {
          "indexed": false,
          "internalType": "uint256",
          "name": "amount",
          "type": "uint256"
        }
      ],
      "name": "Refund",
      "type": "event"
    },
    {
      "anonymous": false,
      "inputs": [
        {
          "indexed": false,
          "internalType": "uint256",
          "name": "id",
          "type": "uint256"
        }
      ],
      "name": "Withdraw",
      "type": "event"
    },
    {
      "inputs": [
        {
          "internalType": "uint256",
          "name": "",
          "type": "uint256"
        }
      ],
      "name": "campaigns",
      "outputs": [
        {
          "internalType": "address",
          "name": "owner",
          "type": "address"
        },
        {
          "internalType": "string",
          "name": "title",
          "type": "string"
        },
        {
          "internalType": "string",
          "name": "description",
          "type": "string"
        },
        {
          "internalType": "uint256",
          "name": "pledged",
          "type": "uint256"
        },
        {
          "internalType": "uint256",
          "name": "goal",
          "type": "uint256"
        },
        {
          "internalType": "uint256",
          "name": "startAt",
          "type": "uint256"
        },
        {
          "internalType": "uint256",
          "name": "endAt",
          "type": "uint256"
        },
        {
          "internalType": "bool",
          "name": "claimed",
          "type": "bool"
        }
      ],
      "stateMutability": "view",
      "type": "function"
    },
    {
      "inputs": [
        {
          "internalType": "uint256",
          "name": "_id",
          "type": "uint256"
        }
      ],
      "name": "cancelCampaign",
      "outputs": [],
      "stateMutability": "nonpayable",
      "type": "function"
    },
    {
      "inputs": [
        {
          "internalType": "string",
          "name": "_title",
          "type": "string"
        },
        {
          "internalType": "string",
          "name": "_description",
          "type": "string"
        },
        {
          "internalType": "uint256",
          "name": "_goal",
          "type": "uint256"
        },
        {
          "internalType": "uint256",
          "name": "_startAt",
          "type": "uint256"
        },
        {
          "internalType": "uint256",
          "name": "_endAt",
          "type": "uint256"
        }
      ],
      "name": "launchCampaign",
      "outputs": [],
      "stateMutability": "nonpayable",
      "type": "function"
    },
    {
      "inputs": [
        {
          "internalType": "uint256",
          "name": "_id",
          "type": "uint256"
        }
      ],
      "name": "pledgeTo",
      "outputs": [],
      "stateMutability": "payable",
      "type": "function"
    },
    {
      "inputs": [
        {
          "internalType": "uint256",
          "name": "",
          "type": "uint256"
        },
        {
          "internalType": "address",
          "name": "",
          "type": "address"
        }
      ],
      "name": "pledgedAmount",
      "outputs": [
        {
          "internalType": "uint256",
          "name": "",
          "type": "uint256"
        }
      ],
      "stateMutability": "view",
      "type": "function"
    },
    {
      "inputs": [
        {
          "internalType": "uint256",
          "name": "_id",
          "type": "uint256"
        }
      ],
      "name": "refund",
      "outputs": [],
      "stateMutability": "payable",
      "type": "function"
    },
    {
      "inputs": [],
      "name": "totalCampaigns",
      "outputs": [
        {
          "internalType": "uint256",
          "name": "",
          "type": "uint256"
        }
      ],
      "stateMutability": "view",
      "type": "function"
    },
    {
      "inputs": [
        {
          "internalType": "uint256",
          "name": "_id",
          "type": "uint256"
        }
      ],
      "name": "withdrawFrom",
      "outputs": [],
      "stateMutability": "payable",
      "type": "function"
    }
  ],
  "bytecode": "0x608060405234801561001057600080fd5b50611e67806100206000396000f3fe60806040526004361061007b5760003560e01c806345598b4a1161004e57806345598b4a14610127578063aa4fb63a14610150578063e6dad8241461018d578063f00702a1146101a95761007b565b806302932f5614610080578063141961bc146100ab5780631f6dbc50146100ef578063278ecde11461010b575b600080fd5b34801561008c57600080fd5b506100956101d2565b6040516100a2919061191a565b60405180910390f35b3480156100b757600080fd5b506100d260048036038101906100cd9190611371565b6101d8565b6040516100e69897969594939291906116ae565b60405180910390f35b61010960048036038101906101049190611371565b61035d565b005b61012560048036038101906101209190611371565b6104d7565b005b34801561013357600080fd5b5061014e60048036038101906101499190611371565b6107c4565b005b34801561015c57600080fd5b506101776004803603810190610172919061139a565b610b28565b604051610184919061191a565b60405180910390f35b6101a760048036038101906101a29190611371565b610b4d565b005b3480156101b557600080fd5b506101d060048036038101906101cb91906112c1565b610e16565b005b60005481565b60016020528060005260406000206000915090508060000160009054906101000a900473ffffffffffffffffffffffffffffffffffffffff169080600101805461022190611aaf565b80601f016020809104026020016040519081016040528092919081815260200182805461024d90611aaf565b801561029a5780601f1061026f5761010080835404028352916020019161029a565b820191906000526020600020905b81548152906001019060200180831161027d57829003601f168201915b5050505050908060020180546102af90611aaf565b80601f01602080910402602001604051908101604052809291908181526020018280546102db90611aaf565b80156103285780601f106102fd57610100808354040283529160200191610328565b820191906000526020600020905b81548152906001019060200180831161030b57829003601f168201915b5050505050908060030154908060040154908060050154908060060154908060070160009054906101000a900460ff16905088565b600060016000838152602001908152602001600020905080600501544210156103bb576040517f08c379a00000000000000000000000000000000000000000000000000000000081526004016103b29061187a565b60405180910390fd5b8060060154421115610402576040517f08c379a00000000000000000000000000000000000000000000000000000000081526004016103f9906117fa565b60405180910390fd5b3481600301600082825461041691906119cf565b92505081905550346002600084815260200190815260200160002060003373ffffffffffffffffffffffffffffffffffffffff1673ffffffffffffffffffffffffffffffffffffffff168152602001908152602001600020600082825461047d91906119cf565b925050819055503373ffffffffffffffffffffffffffffffffffffffff16827f06bdb975df800a73232998e71ed585d536222f1dfeaa622d7f62a23ada686c82346040516104cb919061191a565b60405180910390a35050565b6000339050600060016000848152602001908152602001600020905080600601544211610539576040517f08c379a00000000000000000000000000000000000000000000000000000000081526004016105309061177a565b60405180910390fd5b8060040154816003015410610583576040517f08c379a000000000000000000000000000000000000000000000000000000000815260040161057a906118da565b60405180910390fd5b600073ffffffffffffffffffffffffffffffffffffffff168160000160009054906101000a900473ffffffffffffffffffffffffffffffffffffffff1673ffffffffffffffffffffffffffffffffffffffff161415610617576040517f08c379a000000000000000000000000000000000000000000000000000000000815260040161060e9061173a565b60405180910390fd5b60006002600085815260200190815260200160002060003373ffffffffffffffffffffffffffffffffffffffff1673ffffffffffffffffffffffffffffffffffffffff16815260200190815260200160002054905060006002600086815260200190815260200160002060003373ffffffffffffffffffffffffffffffffffffffff1673ffffffffffffffffffffffffffffffffffffffff1681526020019081526020016000208190555060008373ffffffffffffffffffffffffffffffffffffffff16826040516106e890611699565b60006040518083038185875af1925050503d8060008114610725576040519150601f19603f3d011682016040523d82523d6000602084013e61072a565b606091505b505090508061076e576040517f08c379a00000000000000000000000000000000000000000000000000000000081526004016107659061183a565b60405180910390fd5b3373ffffffffffffffffffffffffffffffffffffffff16857f21e12a7cad0da5928167e1084ea4d5fdf8d9af66657a2543a9ac76a0ca081477846040516107b5919061191a565b60405180910390a35050505050565b600060016000838152602001908152602001600020604051806101000160405290816000820160009054906101000a900473ffffffffffffffffffffffffffffffffffffffff1673ffffffffffffffffffffffffffffffffffffffff1673ffffffffffffffffffffffffffffffffffffffff16815260200160018201805461084b90611aaf565b80601f016020809104026020016040519081016040528092919081815260200182805461087790611aaf565b80156108c45780601f10610899576101008083540402835291602001916108c4565b820191906000526020600020905b8154815290600101906020018083116108a757829003601f168201915b505050505081526020016002820180546108dd90611aaf565b80601f016020809104026020016040519081016040528092919081815260200182805461090990611aaf565b80156109565780601f1061092b57610100808354040283529160200191610956565b820191906000526020600020905b81548152906001019060200180831161093957829003601f168201915b50505050508152602001600382015481526020016004820154815260200160058201548152602001600682015481526020016007820160009054906101000a900460ff1615151515815250509050806000015173ffffffffffffffffffffffffffffffffffffffff163373ffffffffffffffffffffffffffffffffffffffff1614610a16576040517f08c379a0000000000000000000000000000000000000000000000000000000008152600401610a0d9061185a565b60405180910390fd5b8060a001514210610a5c576040517f08c379a0000000000000000000000000000000000000000000000000000000008152600401610a53906118fa565b60405180910390fd5b60016000838152602001908152602001600020600080820160006101000a81549073ffffffffffffffffffffffffffffffffffffffff0219169055600182016000610aa7919061116a565b600282016000610ab7919061116a565b60038201600090556004820160009055600582016000905560068201600090556007820160006101000a81549060ff021916905550507f8bf30e7ff26833413be5f69e1d373744864d600b664204b4a2f9844a8eedb9ed82604051610b1c919061191a565b60405180910390a15050565b6002602052816000526040600020602052806000526040600020600091509150505481565b60006001600083815260200190815260200160002090508060000160009054906101000a900473ffffffffffffffffffffffffffffffffffffffff1673ffffffffffffffffffffffffffffffffffffffff163373ffffffffffffffffffffffffffffffffffffffff1614610bf6576040517f08c379a0000000000000000000000000000000000000000000000000000000008152600401610bed9061185a565b60405180910390fd5b80600601544211610c3c576040517f08c379a0000000000000000000000000000000000000000000000000000000008152600401610c339061177a565b60405180910390fd5b806004015481600301541015610c87576040517f08c379a0000000000000000000000000000000000000000000000000000000008152600401610c7e9061175a565b60405180910390fd5b8060070160009054906101000a900460ff1615610cd9576040517f08c379a0000000000000000000000000000000000000000000000000000000008152600401610cd09061181a565b60405180910390fd5b60018160070160006101000a81548160ff0219169083151502179055506000816003015490506000826003018190555060008260000160009054906101000a900473ffffffffffffffffffffffffffffffffffffffff1673ffffffffffffffffffffffffffffffffffffffff1682604051610d5390611699565b60006040518083038185875af1925050503d8060008114610d90576040519150601f19603f3d011682016040523d82523d6000602084013e610d95565b606091505b5050905080610dd9576040517f08c379a0000000000000000000000000000000000000000000000000000000008152600401610dd0906117da565b60405180910390fd5b7f5b6b431d4476a211bb7d41c20d1aab9ae2321deee0d20be3d9fc9b1093fa6e3d84604051610e08919061191a565b60405180910390a150505050565b42821015610e59576040517f08c379a0000000000000000000000000000000000000000000000000000000008152600401610e509061179a565b60405180910390fd5b81811015610e9c576040517f08c379a0000000000000000000000000000000000000000000000000000000008152600401610e939061189a565b60405180910390fd5b62278d0042610eab91906119cf565b811115610eed576040517f08c379a0000000000000000000000000000000000000000000000000000000008152600401610ee4906117ba565b60405180910390fd5b60008311610f30576040517f08c379a0000000000000000000000000000000000000000000000000000000008152600401610f27906118ba565b60405180910390fd5b600080815480929190610f4290611ae1565b91905055506040518061010001604052803373ffffffffffffffffffffffffffffffffffffffff16815260200188888080601f016020809104026020016040519081016040528093929190818152602001838380828437600081840152601f19601f82011690508083019250505050505050815260200186868080601f016020809104026020016040519081016040528093929190818152602001838380828437600081840152601f19601f8201169050808301925050505050505081526020016000815260200184815260200183815260200182815260200160001515815250600160008054815260200190815260200160002060008201518160000160006101000a81548173ffffffffffffffffffffffffffffffffffffffff021916908373ffffffffffffffffffffffffffffffffffffffff160217905550602082015181600101908051906020019061109a9291906111aa565b5060408201518160020190805190602001906110b79291906111aa565b50606082015181600301556080820151816004015560a0820151816005015560c0820151816006015560e08201518160070160006101000a81548160ff0219169083151502179055509050503373ffffffffffffffffffffffffffffffffffffffff167f2cba31aa2e0c472eb6dba6e465eebb0b2199b8b7100ec50b12afb5ec0402583a6000548989878a8a8989604051611159989796959493929190611935565b60405180910390a250505050505050565b50805461117690611aaf565b6000825580601f1061118857506111a7565b601f0160209004906000526020600020908101906111a69190611230565b5b50565b8280546111b690611aaf565b90600052602060002090601f0160209004810192826111d8576000855561121f565b82601f106111f157805160ff191683800117855561121f565b8280016001018555821561121f579182015b8281111561121e578251825591602001919060010190611203565b5b50905061122c9190611230565b5090565b5b80821115611249576000816000905550600101611231565b5090565b60008135905061125c81611e03565b92915050565b60008083601f84011261127457600080fd5b8235905067ffffffffffffffff81111561128d57600080fd5b6020830191508360018202830111156112a557600080fd5b9250929050565b6000813590506112bb81611e1a565b92915050565b600080600080600080600060a0888a0312156112dc57600080fd5b600088013567ffffffffffffffff8111156112f657600080fd5b6113028a828b01611262565b9750975050602088013567ffffffffffffffff81111561132157600080fd5b61132d8a828b01611262565b955095505060406113408a828b016112ac565b93505060606113518a828b016112ac565b92505060806113628a828b016112ac565b91505092959891949750929550565b60006020828403121561138357600080fd5b6000611391848285016112ac565b91505092915050565b600080604083850312156113ad57600080fd5b60006113bb858286016112ac565b92505060206113cc8582860161124d565b9150509250929050565b6113df81611a25565b82525050565b6113ee81611a37565b82525050565b600061140083856119be565b935061140d838584611a6d565b61141683611b88565b840190509392505050565b600061142c826119a8565b61143681856119be565b9350611446818560208601611a7c565b61144f81611b88565b840191505092915050565b60006114676017836119be565b915061147282611b99565b602082019050919050565b600061148a6010836119be565b915061149582611bc2565b602082019050919050565b60006114ad600c836119be565b91506114b882611beb565b602082019050919050565b60006114d06012836119be565b91506114db82611c14565b602082019050919050565b60006114f36016836119be565b91506114fe82611c3d565b602082019050919050565b60006115166014836119be565b915061152182611c66565b602082019050919050565b60006115396009836119be565b915061154482611c8f565b602082019050919050565b600061155c600f836119be565b915061156782611cb8565b602082019050919050565b600061157f6014836119be565b915061158a82611ce1565b602082019050919050565b60006115a26009836119be565b91506115ad82611d0a565b602082019050919050565b60006115c56000836119b3565b91506115d082611d33565b600082019050919050565b60006115e8600e836119be565b91506115f382611d36565b602082019050919050565b600061160b6010836119be565b915061161682611d5f565b602082019050919050565b600061162e601b836119be565b915061163982611d88565b602082019050919050565b60006116516014836119be565b915061165c82611db1565b602082019050919050565b6000611674600b836119be565b915061167f82611dda565b602082019050919050565b61169381611a63565b82525050565b60006116a4826115b8565b9150819050919050565b6000610100820190506116c4600083018b6113d6565b81810360208301526116d6818a611421565b905081810360408301526116ea8189611421565b90506116f9606083018861168a565b611706608083018761168a565b61171360a083018661168a565b61172060c083018561168a565b61172d60e08301846113e5565b9998505050505050505050565b600060208201905081810360008301526117538161145a565b9050919050565b600060208201905081810360008301526117738161147d565b9050919050565b60006020820190508181036000830152611793816114a0565b9050919050565b600060208201905081810360008301526117b3816114c3565b9050919050565b600060208201905081810360008301526117d3816114e6565b9050919050565b600060208201905081810360008301526117f381611509565b9050919050565b600060208201905081810360008301526118138161152c565b9050919050565b600060208201905081810360008301526118338161154f565b9050919050565b6000602082019050818103600083015261185381611572565b9050919050565b6000602082019050818103600083015261187381611595565b9050919050565b60006020820190508181036000830152611893816115db565b9050919050565b600060208201905081810360008301526118b3816115fe565b9050919050565b600060208201905081810360008301526118d381611621565b9050919050565b600060208201905081810360008301526118f381611644565b9050919050565b6000602082019050818103600083015261191381611667565b9050919050565b600060208201905061192f600083018461168a565b92915050565b600060c08201905061194a600083018b61168a565b818103602083015261195d81898b6113f4565b905061196c604083018861168a565b818103606083015261197f8186886113f4565b905061198e608083018561168a565b61199b60a083018461168a565b9998505050505050505050565b600081519050919050565b600081905092915050565b600082825260208201905092915050565b60006119da82611a63565b91506119e583611a63565b9250827fffffffffffffffffffffffffffffffffffffffffffffffffffffffffffffffff03821115611a1a57611a19611b2a565b5b828201905092915050565b6000611a3082611a43565b9050919050565b60008115159050919050565b600073ffffffffffffffffffffffffffffffffffffffff82169050919050565b6000819050919050565b82818337600083830152505050565b60005b83811015611a9a578082015181840152602081019050611a7f565b83811115611aa9576000848401525b50505050565b60006002820490506001821680611ac757607f821691505b60208210811415611adb57611ada611b59565b5b50919050565b6000611aec82611a63565b91507fffffffffffffffffffffffffffffffffffffffffffffffffffffffffffffffff821415611b1f57611b1e611b2a565b5b600182019050919050565b7f4e487b7100000000000000000000000000000000000000000000000000000000600052601160045260246000fd5b7f4e487b7100000000000000000000000000000000000000000000000000000000600052602260045260246000fd5b6000601f19601f8301169050919050565b7f43616d706169676e20646f6573206e6f74206578697374000000000000000000600082015250565b7f4469646e2774206d65657420676f616c00000000000000000000000000000000600082015250565b7f4861736e277420656e6465640000000000000000000000000000000000000000600082015250565b7f496e76616c696420737461727420646174650000000000000000000000000000600082015250565b7f43616e6e6f7420676f2070617374203330206461797300000000000000000000600082015250565b7f4661696c656420746f2073656e64204574686572000000000000000000000000600082015250565b7f48617320656e6465640000000000000000000000000000000000000000000000600082015250565b7f416c726561647920636c61696d65640000000000000000000000000000000000600082015250565b7f4661696c656420746f2073656e64206574686572000000000000000000000000600082015250565b7f4e6f74206f776e65720000000000000000000000000000000000000000000000600082015250565b50565b7f4861736e27742073746172746564000000000000000000000000000000000000600082015250565b7f496e76616c696420656e64206461746500000000000000000000000000000000600082015250565b7f476f616c206d7573742062652067726561746572207468616e20300000000000600082015250565b7f546f74616c206c657373207468616e20676f616c000000000000000000000000600082015250565b7f4861732073746172746564000000000000000000000000000000000000000000600082015250565b611e0c81611a25565b8114611e1757600080fd5b50565b611e2381611a63565b8114611e2e57600080fd5b5056fea2646970667358221220929a17e281a41667a8f4b2d9314723cf492ffe23474d4a9e14ba94ed08a1d2b164736f6c63430008040033",
  "linkReferences": {},
  "deployedLinkReferences": {}
}