{
  "_format": "hh-sol-artifact-1",
  "contractName": "CrowdGaming",
  "sourceName": "contracts/CrowdGaming.sol",
  "abi": [
    {
      "anonymous": false,
      "inputs": [
        {
          "indexed": false,
          "internalType": "uint256",
          "name": "id",
          "type": "uint256"
        }
      ],
      "name": "Cancel",
      "type": "event"
    },
    {
      "anonymous": false,
      "inputs": [
        {
          "indexed": false,
          "internalType": "uint8",
          "name": "version",
          "type": "uint8"
        }
      ],
      "name": "Initialized",
      "type": "event"
    },
    {
      "anonymous": false,
      "inputs": [
        {
          "indexed": false,
          "internalType": "uint256",
          "name": "id",
          "type": "uint256"
        },
        {
          "indexed": true,
          "internalType": "address",
          "name": "owner",
          "type": "address"
        },
        {
          "indexed": false,
          "internalType": "string",
          "name": "title",
          "type": "string"
        },
        {
          "indexed": false,
          "internalType": "uint256",
          "name": "goal",
          "type": "uint256"
        },
        {
          "indexed": false,
          "internalType": "string",
          "name": "description",
          "type": "string"
        },
        {
          "indexed": false,
          "internalType": "uint32",
          "name": "startAt",
          "type": "uint32"
        },
        {
          "indexed": false,
          "internalType": "uint32",
          "name": "endAt",
          "type": "uint32"
        }
      ],
      "name": "Launch",
      "type": "event"
    },
    {
      "anonymous": false,
      "inputs": [
        {
          "indexed": true,
          "internalType": "uint256",
          "name": "id",
          "type": "uint256"
        },
        {
          "indexed": true,
          "internalType": "address",
          "name": "pledger",
          "type": "address"
        },
        {
          "indexed": false,
          "internalType": "uint256",
          "name": "amount",
          "type": "uint256"
        }
      ],
      "name": "Pledge",
      "type": "event"
    },
    {
      "anonymous": false,
      "inputs": [
        {
          "indexed": true,
          "internalType": "uint256",
          "name": "id",
          "type": "uint256"
        },
        {
          "indexed": true,
          "internalType": "address",
          "name": "pledger",
          "type": "address"
        },
        {
          "indexed": false,
          "internalType": "uint256",
          "name": "amount",
          "type": "uint256"
        }
      ],
      "name": "Refund",
      "type": "event"
    },
    {
      "anonymous": false,
      "inputs": [
        {
          "indexed": false,
          "internalType": "uint256",
          "name": "id",
          "type": "uint256"
        }
      ],
      "name": "Withdraw",
      "type": "event"
    },
    {
      "inputs": [
        {
          "internalType": "uint256",
          "name": "",
          "type": "uint256"
        }
      ],
      "name": "campaigns",
      "outputs": [
        {
          "internalType": "address",
          "name": "owner",
          "type": "address"
        },
        {
          "internalType": "string",
          "name": "title",
          "type": "string"
        },
        {
          "internalType": "string",
          "name": "description",
          "type": "string"
        },
        {
          "internalType": "uint256",
          "name": "pledged",
          "type": "uint256"
        },
        {
          "internalType": "uint256",
          "name": "goal",
          "type": "uint256"
        },
        {
          "internalType": "uint32",
          "name": "startAt",
          "type": "uint32"
        },
        {
          "internalType": "uint32",
          "name": "endAt",
          "type": "uint32"
        },
        {
          "internalType": "bool",
          "name": "claimed",
          "type": "bool"
        }
      ],
      "stateMutability": "view",
      "type": "function"
    },
    {
      "inputs": [
        {
          "internalType": "uint256",
          "name": "_id",
          "type": "uint256"
        }
      ],
      "name": "cancelCampaign",
      "outputs": [],
      "stateMutability": "nonpayable",
      "type": "function"
    },
    {
      "inputs": [],
      "name": "initialize",
      "outputs": [],
      "stateMutability": "nonpayable",
      "type": "function"
    },
    {
      "inputs": [
        {
          "internalType": "string",
          "name": "_title",
          "type": "string"
        },
        {
          "internalType": "string",
          "name": "_description",
          "type": "string"
        },
        {
          "internalType": "uint256",
          "name": "_goal",
          "type": "uint256"
        },
        {
          "internalType": "uint32",
          "name": "_startAt",
          "type": "uint32"
        },
        {
          "internalType": "uint32",
          "name": "_endAt",
          "type": "uint32"
        }
      ],
      "name": "launchCampaign",
      "outputs": [],
      "stateMutability": "nonpayable",
      "type": "function"
    },
    {
      "inputs": [
        {
          "internalType": "uint256",
          "name": "_id",
          "type": "uint256"
        }
      ],
      "name": "pledgeTo",
      "outputs": [],
      "stateMutability": "payable",
      "type": "function"
    },
    {
      "inputs": [
        {
          "internalType": "uint256",
          "name": "",
          "type": "uint256"
        },
        {
          "internalType": "address",
          "name": "",
          "type": "address"
        }
      ],
      "name": "pledgedAmount",
      "outputs": [
        {
          "internalType": "uint256",
          "name": "",
          "type": "uint256"
        }
      ],
      "stateMutability": "view",
      "type": "function"
    },
    {
      "inputs": [
        {
          "internalType": "uint256",
          "name": "_id",
          "type": "uint256"
        }
      ],
      "name": "refund",
      "outputs": [],
      "stateMutability": "payable",
      "type": "function"
    },
    {
      "inputs": [],
      "name": "totalCampaigns",
      "outputs": [
        {
          "internalType": "uint256",
          "name": "",
          "type": "uint256"
        }
      ],
      "stateMutability": "view",
      "type": "function"
    },
    {
      "inputs": [
        {
          "internalType": "uint256",
          "name": "_id",
          "type": "uint256"
        }
      ],
      "name": "withdrawFrom",
      "outputs": [],
      "stateMutability": "payable",
      "type": "function"
    }
  ],
  "bytecode": "0x608060405234801561001057600080fd5b50612547806100206000396000f3fe6080604052600436106100865760003560e01c8063278ecde111610059578063278ecde11461013f57806345598b4a1461015b5780638129fc1c14610184578063aa4fb63a1461019b578063e6dad824146101d857610086565b806302932f561461008b5780630caff08a146100b6578063141961bc146100df5780631f6dbc5014610123575b600080fd5b34801561009757600080fd5b506100a06101f4565b6040516100ad9190611e61565b60405180910390f35b3480156100c257600080fd5b506100dd60048036038101906100d8919061173c565b6101fa565b005b3480156100eb57600080fd5b50610106600480360381019061010191906117e3565b6105ab565b60405161011a989796959493929190611b7a565b60405180910390f35b61013d600480360381019061013891906117e3565b610750565b005b610159600480360381019061015491906117e3565b61098a565b005b34801561016757600080fd5b50610182600480360381019061017d91906117e3565b610c8d565b005b34801561019057600080fd5b506101996110c1565b005b3480156101a757600080fd5b506101c260048036038101906101bd919061180c565b6111f7565b6040516101cf9190611e61565b60405180910390f35b6101f260048036038101906101ed91906117e3565b61121c565b005b60015481565b428263ffffffff161015610243576040517f08c379a000000000000000000000000000000000000000000000000000000000815260040161023a90611c81565b60405180910390fd5b8163ffffffff168163ffffffff161015610292576040517f08c379a000000000000000000000000000000000000000000000000000000000815260040161028990611dc1565b60405180910390fd5b62278d00426102a19190611f68565b8163ffffffff1611156102e9576040517f08c379a00000000000000000000000000000000000000000000000000000000081526004016102e090611ca1565b60405180910390fd5b6000831161032c576040517f08c379a000000000000000000000000000000000000000000000000000000000815260040161032390611de1565b60405180910390fd5b603285511115610371576040517f08c379a000000000000000000000000000000000000000000000000000000000815260040161036890611e01565b60405180910390fd5b6107d0845111156103b7576040517f08c379a00000000000000000000000000000000000000000000000000000000081526004016103ae90611da1565b60405180910390fd5b600160008154809291906103ca906120da565b91905055506040518061010001604052803373ffffffffffffffffffffffffffffffffffffffff168152602001868152602001858152602001600081526020018481526020018363ffffffff1681526020018263ffffffff1681526020016000151581525060026000600154815260200190815260200160002060008201518160000160006101000a81548173ffffffffffffffffffffffffffffffffffffffff021916908373ffffffffffffffffffffffffffffffffffffffff16021790555060208201518160010190805190602001906104a79291906115b2565b5060408201518160020190805190602001906104c49291906115b2565b50606082015181600301556080820151816004015560a08201518160050160006101000a81548163ffffffff021916908363ffffffff16021790555060c08201518160050160046101000a81548163ffffffff021916908363ffffffff16021790555060e08201518160050160086101000a81548160ff0219169083151502179055509050503373ffffffffffffffffffffffffffffffffffffffff167f0c1f42855fee1b60c3b5e844d1afbf773f8134d497aef0c74712f80c901f0dfc600154878688878760405161059c96959493929190611e7c565b60405180910390a25050505050565b60026020528060005260406000206000915090508060000160009054906101000a900473ffffffffffffffffffffffffffffffffffffffff16908060010180546105f490612077565b80601f016020809104026020016040519081016040528092919081815260200182805461062090612077565b801561066d5780601f106106425761010080835404028352916020019161066d565b820191906000526020600020905b81548152906001019060200180831161065057829003601f168201915b50505050509080600201805461068290612077565b80601f01602080910402602001604051908101604052809291908181526020018280546106ae90612077565b80156106fb5780601f106106d0576101008083540402835291602001916106fb565b820191906000526020600020905b8154815290600101906020018083116106de57829003601f168201915b5050505050908060030154908060040154908060050160009054906101000a900463ffffffff16908060050160049054906101000a900463ffffffff16908060050160089054906101000a900460ff16905088565b60006002600083815260200190815260200160002090508060050160009054906101000a900463ffffffff1663ffffffff164210156107c4576040517f08c379a00000000000000000000000000000000000000000000000000000000081526004016107bb90611d81565b60405180910390fd5b8060050160049054906101000a900463ffffffff1663ffffffff16421115610821576040517f08c379a000000000000000000000000000000000000000000000000000000000815260040161081890611ce1565b60405180910390fd5b600073ffffffffffffffffffffffffffffffffffffffff168160000160009054906101000a900473ffffffffffffffffffffffffffffffffffffffff1673ffffffffffffffffffffffffffffffffffffffff1614156108b5576040517f08c379a00000000000000000000000000000000000000000000000000000000081526004016108ac90611c21565b60405180910390fd5b348160030160008282546108c99190611f68565b92505081905550346003600084815260200190815260200160002060003373ffffffffffffffffffffffffffffffffffffffff1673ffffffffffffffffffffffffffffffffffffffff16815260200190815260200160002060008282546109309190611f68565b925050819055503373ffffffffffffffffffffffffffffffffffffffff16827f06bdb975df800a73232998e71ed585d536222f1dfeaa622d7f62a23ada686c823460405161097e9190611e61565b60405180910390a35050565b600033905060006002600084815260200190815260200160002090508060050160049054906101000a900463ffffffff1663ffffffff164211610a02576040517f08c379a00000000000000000000000000000000000000000000000000000000081526004016109f990611c61565b60405180910390fd5b8060040154816003015410610a4c576040517f08c379a0000000000000000000000000000000000000000000000000000000008152600401610a4390611e21565b60405180910390fd5b600073ffffffffffffffffffffffffffffffffffffffff168160000160009054906101000a900473ffffffffffffffffffffffffffffffffffffffff1673ffffffffffffffffffffffffffffffffffffffff161415610ae0576040517f08c379a0000000000000000000000000000000000000000000000000000000008152600401610ad790611c21565b60405180910390fd5b60006003600085815260200190815260200160002060003373ffffffffffffffffffffffffffffffffffffffff1673ffffffffffffffffffffffffffffffffffffffff16815260200190815260200160002054905060006003600086815260200190815260200160002060003373ffffffffffffffffffffffffffffffffffffffff1673ffffffffffffffffffffffffffffffffffffffff1681526020019081526020016000208190555060008373ffffffffffffffffffffffffffffffffffffffff1682604051610bb190611b65565b60006040518083038185875af1925050503d8060008114610bee576040519150601f19603f3d011682016040523d82523d6000602084013e610bf3565b606091505b5050905080610c37576040517f08c379a0000000000000000000000000000000000000000000000000000000008152600401610c2e90611d41565b60405180910390fd5b3373ffffffffffffffffffffffffffffffffffffffff16857f21e12a7cad0da5928167e1084ea4d5fdf8d9af66657a2543a9ac76a0ca08147784604051610c7e9190611e61565b60405180910390a35050505050565b600060026000838152602001908152602001600020604051806101000160405290816000820160009054906101000a900473ffffffffffffffffffffffffffffffffffffffff1673ffffffffffffffffffffffffffffffffffffffff1673ffffffffffffffffffffffffffffffffffffffff168152602001600182018054610d1490612077565b80601f0160208091040260200160405190810160405280929190818152602001828054610d4090612077565b8015610d8d5780601f10610d6257610100808354040283529160200191610d8d565b820191906000526020600020905b815481529060010190602001808311610d7057829003601f168201915b50505050508152602001600282018054610da690612077565b80601f0160208091040260200160405190810160405280929190818152602001828054610dd290612077565b8015610e1f5780601f10610df457610100808354040283529160200191610e1f565b820191906000526020600020905b815481529060010190602001808311610e0257829003601f168201915b5050505050815260200160038201548152602001600482015481526020016005820160009054906101000a900463ffffffff1663ffffffff1663ffffffff1681526020016005820160049054906101000a900463ffffffff1663ffffffff1663ffffffff1681526020016005820160089054906101000a900460ff1615151515815250509050806000015173ffffffffffffffffffffffffffffffffffffffff163373ffffffffffffffffffffffffffffffffffffffff1614610f17576040517f08c379a0000000000000000000000000000000000000000000000000000000008152600401610f0e90611d61565b60405180910390fd5b600073ffffffffffffffffffffffffffffffffffffffff16816000015173ffffffffffffffffffffffffffffffffffffffff161415610f8b576040517f08c379a0000000000000000000000000000000000000000000000000000000008152600401610f8290611c21565b60405180910390fd5b8060a0015163ffffffff164210610fd7576040517f08c379a0000000000000000000000000000000000000000000000000000000008152600401610fce90611e41565b60405180910390fd5b60026000838152602001908152602001600020600080820160006101000a81549073ffffffffffffffffffffffffffffffffffffffff02191690556001820160006110229190611638565b6002820160006110329190611638565b600382016000905560048201600090556005820160006101000a81549063ffffffff02191690556005820160046101000a81549063ffffffff02191690556005820160086101000a81549060ff021916905550507f8bf30e7ff26833413be5f69e1d373744864d600b664204b4a2f9844a8eedb9ed826040516110b59190611e61565b60405180910390a15050565b60008060019054906101000a900460ff161590508080156110f25750600160008054906101000a900460ff1660ff16105b8061111f57506111013061158f565b15801561111e5750600160008054906101000a900460ff1660ff16145b5b61115e576040517f08c379a000000000000000000000000000000000000000000000000000000000815260040161115590611d01565b60405180910390fd5b60016000806101000a81548160ff021916908360ff160217905550801561119b576001600060016101000a81548160ff0219169083151502179055505b80156111f45760008060016101000a81548160ff0219169083151502179055507f7f26b83ff96e1f2b6a682f133852f6798a09c465da95921460cefb384740249860016040516111eb9190611c06565b60405180910390a15b50565b6003602052816000526040600020602052806000526040600020600091509150505481565b60006002600083815260200190815260200160002090508060000160009054906101000a900473ffffffffffffffffffffffffffffffffffffffff1673ffffffffffffffffffffffffffffffffffffffff163373ffffffffffffffffffffffffffffffffffffffff16146112c5576040517f08c379a00000000000000000000000000000000000000000000000000000000081526004016112bc90611d61565b60405180910390fd5b8060050160049054906101000a900463ffffffff1663ffffffff164211611321576040517f08c379a000000000000000000000000000000000000000000000000000000000815260040161131890611c61565b60405180910390fd5b80600401548160030154101561136c576040517f08c379a000000000000000000000000000000000000000000000000000000000815260040161136390611c41565b60405180910390fd5b8060050160089054906101000a900460ff16156113be576040517f08c379a00000000000000000000000000000000000000000000000000000000081526004016113b590611d21565b60405180910390fd5b600073ffffffffffffffffffffffffffffffffffffffff168160000160009054906101000a900473ffffffffffffffffffffffffffffffffffffffff1673ffffffffffffffffffffffffffffffffffffffff161415611452576040517f08c379a000000000000000000000000000000000000000000000000000000000815260040161144990611c21565b60405180910390fd5b60018160050160086101000a81548160ff0219169083151502179055506000816003015490506000826003018190555060008260000160009054906101000a900473ffffffffffffffffffffffffffffffffffffffff1673ffffffffffffffffffffffffffffffffffffffff16826040516114cc90611b65565b60006040518083038185875af1925050503d8060008114611509576040519150601f19603f3d011682016040523d82523d6000602084013e61150e565b606091505b5050905080611552576040517f08c379a000000000000000000000000000000000000000000000000000000000815260040161154990611cc1565b60405180910390fd5b7f5b6b431d4476a211bb7d41c20d1aab9ae2321deee0d20be3d9fc9b1093fa6e3d846040516115819190611e61565b60405180910390a150505050565b6000808273ffffffffffffffffffffffffffffffffffffffff163b119050919050565b8280546115be90612077565b90600052602060002090601f0160209004810192826115e05760008555611627565b82601f106115f957805160ff1916838001178555611627565b82800160010185558215611627579182015b8281111561162657825182559160200191906001019061160b565b5b5090506116349190611678565b5090565b50805461164490612077565b6000825580601f106116565750611675565b601f0160209004906000526020600020908101906116749190611678565b5b50565b5b80821115611691576000816000905550600101611679565b5090565b60006116a86116a384611f10565b611eeb565b9050828152602081018484840111156116c057600080fd5b6116cb848285612035565b509392505050565b6000813590506116e2816124cc565b92915050565b600082601f8301126116f957600080fd5b8135611709848260208601611695565b91505092915050565b600081359050611721816124e3565b92915050565b600081359050611736816124fa565b92915050565b600080600080600060a0868803121561175457600080fd5b600086013567ffffffffffffffff81111561176e57600080fd5b61177a888289016116e8565b955050602086013567ffffffffffffffff81111561179757600080fd5b6117a3888289016116e8565b94505060406117b488828901611712565b93505060606117c588828901611727565b92505060806117d688828901611727565b9150509295509295909350565b6000602082840312156117f557600080fd5b600061180384828501611712565b91505092915050565b6000806040838503121561181f57600080fd5b600061182d85828601611712565b925050602061183e858286016116d3565b9150509250929050565b61185181611fbe565b82525050565b61186081611fd0565b82525050565b61186f81612023565b82525050565b600061188082611f41565b61188a8185611f57565b935061189a818560208601612044565b6118a3816121b0565b840191505092915050565b60006118bb601783611f57565b91506118c6826121c1565b602082019050919050565b60006118de601083611f57565b91506118e9826121ea565b602082019050919050565b6000611901600c83611f57565b915061190c82612213565b602082019050919050565b6000611924601283611f57565b915061192f8261223c565b602082019050919050565b6000611947601683611f57565b915061195282612265565b602082019050919050565b600061196a601483611f57565b91506119758261228e565b602082019050919050565b600061198d600983611f57565b9150611998826122b7565b602082019050919050565b60006119b0602e83611f57565b91506119bb826122e0565b604082019050919050565b60006119d3600f83611f57565b91506119de8261232f565b602082019050919050565b60006119f6601483611f57565b9150611a0182612358565b602082019050919050565b6000611a19600983611f57565b9150611a2482612381565b602082019050919050565b6000611a3c600083611f4c565b9150611a47826123aa565b600082019050919050565b6000611a5f600e83611f57565b9150611a6a826123ad565b602082019050919050565b6000611a82601483611f57565b9150611a8d826123d6565b602082019050919050565b6000611aa5601083611f57565b9150611ab0826123ff565b602082019050919050565b6000611ac8601b83611f57565b9150611ad382612428565b602082019050919050565b6000611aeb600e83611f57565b9150611af682612451565b602082019050919050565b6000611b0e601483611f57565b9150611b198261247a565b602082019050919050565b6000611b31600b83611f57565b9150611b3c826124a3565b602082019050919050565b611b5081611ffc565b82525050565b611b5f81612006565b82525050565b6000611b7082611a2f565b9150819050919050565b600061010082019050611b90600083018b611848565b8181036020830152611ba2818a611875565b90508181036040830152611bb68189611875565b9050611bc56060830188611b47565b611bd26080830187611b47565b611bdf60a0830186611b56565b611bec60c0830185611b56565b611bf960e0830184611857565b9998505050505050505050565b6000602082019050611c1b6000830184611866565b92915050565b60006020820190508181036000830152611c3a816118ae565b9050919050565b60006020820190508181036000830152611c5a816118d1565b9050919050565b60006020820190508181036000830152611c7a816118f4565b9050919050565b60006020820190508181036000830152611c9a81611917565b9050919050565b60006020820190508181036000830152611cba8161193a565b9050919050565b60006020820190508181036000830152611cda8161195d565b9050919050565b60006020820190508181036000830152611cfa81611980565b9050919050565b60006020820190508181036000830152611d1a816119a3565b9050919050565b60006020820190508181036000830152611d3a816119c6565b9050919050565b60006020820190508181036000830152611d5a816119e9565b9050919050565b60006020820190508181036000830152611d7a81611a0c565b9050919050565b60006020820190508181036000830152611d9a81611a52565b9050919050565b60006020820190508181036000830152611dba81611a75565b9050919050565b60006020820190508181036000830152611dda81611a98565b9050919050565b60006020820190508181036000830152611dfa81611abb565b9050919050565b60006020820190508181036000830152611e1a81611ade565b9050919050565b60006020820190508181036000830152611e3a81611b01565b9050919050565b60006020820190508181036000830152611e5a81611b24565b9050919050565b6000602082019050611e766000830184611b47565b92915050565b600060c082019050611e916000830189611b47565b8181036020830152611ea38188611875565b9050611eb26040830187611b47565b8181036060830152611ec48186611875565b9050611ed36080830185611b56565b611ee060a0830184611b56565b979650505050505050565b6000611ef5611f06565b9050611f0182826120a9565b919050565b6000604051905090565b600067ffffffffffffffff821115611f2b57611f2a612181565b5b611f34826121b0565b9050602081019050919050565b600081519050919050565b600081905092915050565b600082825260208201905092915050565b6000611f7382611ffc565b9150611f7e83611ffc565b9250827fffffffffffffffffffffffffffffffffffffffffffffffffffffffffffffffff03821115611fb357611fb2612123565b5b828201905092915050565b6000611fc982611fdc565b9050919050565b60008115159050919050565b600073ffffffffffffffffffffffffffffffffffffffff82169050919050565b6000819050919050565b600063ffffffff82169050919050565b600060ff82169050919050565b600061202e82612016565b9050919050565b82818337600083830152505050565b60005b83811015612062578082015181840152602081019050612047565b83811115612071576000848401525b50505050565b6000600282049050600182168061208f57607f821691505b602082108114156120a3576120a2612152565b5b50919050565b6120b2826121b0565b810181811067ffffffffffffffff821117156120d1576120d0612181565b5b80604052505050565b60006120e582611ffc565b91507fffffffffffffffffffffffffffffffffffffffffffffffffffffffffffffffff82141561211857612117612123565b5b600182019050919050565b7f4e487b7100000000000000000000000000000000000000000000000000000000600052601160045260246000fd5b7f4e487b7100000000000000000000000000000000000000000000000000000000600052602260045260246000fd5b7f4e487b7100000000000000000000000000000000000000000000000000000000600052604160045260246000fd5b6000601f19601f8301169050919050565b7f43616d706169676e20646f6573206e6f74206578697374000000000000000000600082015250565b7f4469646e2774206d65657420676f616c00000000000000000000000000000000600082015250565b7f4861736e277420656e6465640000000000000000000000000000000000000000600082015250565b7f496e76616c696420737461727420646174650000000000000000000000000000600082015250565b7f43616e6e6f7420676f2070617374203330206461797300000000000000000000600082015250565b7f4661696c656420746f2073656e64204574686572000000000000000000000000600082015250565b7f48617320656e6465640000000000000000000000000000000000000000000000600082015250565b7f496e697469616c697a61626c653a20636f6e747261637420697320616c72656160008201527f647920696e697469616c697a6564000000000000000000000000000000000000602082015250565b7f416c726561647920636c61696d65640000000000000000000000000000000000600082015250565b7f4661696c656420746f2073656e64206574686572000000000000000000000000600082015250565b7f4e6f74206f776e65720000000000000000000000000000000000000000000000600082015250565b50565b7f4861736e27742073746172746564000000000000000000000000000000000000600082015250565b7f4465736372697074696f6e20746f6f206c6f6e67000000000000000000000000600082015250565b7f496e76616c696420656e64206461746500000000000000000000000000000000600082015250565b7f476f616c206d7573742062652067726561746572207468616e20300000000000600082015250565b7f5469746c6520746f6f206c6f6e67000000000000000000000000000000000000600082015250565b7f546f74616c206c657373207468616e20676f616c000000000000000000000000600082015250565b7f4861732073746172746564000000000000000000000000000000000000000000600082015250565b6124d581611fbe565b81146124e057600080fd5b50565b6124ec81611ffc565b81146124f757600080fd5b50565b61250381612006565b811461250e57600080fd5b5056fea2646970667358221220216e5c08e681494fe0b79713352c391f041bb712f8d22d545c4e41924fe9db7664736f6c63430008040033",
  "linkReferences": {},
  "deployedLinkReferences": {}
}