{
  "_format": "hh-sol-artifact-1",
  "contractName": "CrowdGaming",
  "sourceName": "contracts/CrowdGaming.sol",
  "abi": [
    {
      "inputs": [
        {
          "internalType": "address",
          "name": "_token",
          "type": "address"
        }
      ],
      "stateMutability": "nonpayable",
      "type": "constructor"
    },
    {
      "anonymous": false,
      "inputs": [
        {
          "indexed": false,
          "internalType": "uint256",
          "name": "id",
          "type": "uint256"
        }
      ],
      "name": "Cancel",
      "type": "event"
    },
    {
      "anonymous": false,
      "inputs": [
        {
          "indexed": false,
          "internalType": "uint256",
          "name": "id",
          "type": "uint256"
        },
        {
          "indexed": true,
          "internalType": "address",
          "name": "owner",
          "type": "address"
        },
        {
          "indexed": false,
          "internalType": "string",
          "name": "title",
          "type": "string"
        },
        {
          "indexed": false,
          "internalType": "uint256",
          "name": "goal",
          "type": "uint256"
        },
        {
          "indexed": false,
          "internalType": "string",
          "name": "description",
          "type": "string"
        },
        {
          "indexed": false,
          "internalType": "uint32",
          "name": "startAt",
          "type": "uint32"
        },
        {
          "indexed": false,
          "internalType": "uint32",
          "name": "endAt",
          "type": "uint32"
        }
      ],
      "name": "Launch",
      "type": "event"
    },
    {
      "anonymous": false,
      "inputs": [
        {
          "indexed": true,
          "internalType": "uint256",
          "name": "id",
          "type": "uint256"
        },
        {
          "indexed": true,
          "internalType": "address",
          "name": "pledger",
          "type": "address"
        },
        {
          "indexed": false,
          "internalType": "uint256",
          "name": "amount",
          "type": "uint256"
        }
      ],
      "name": "Pledge",
      "type": "event"
    },
    {
      "anonymous": false,
      "inputs": [
        {
          "indexed": true,
          "internalType": "uint256",
          "name": "id",
          "type": "uint256"
        },
        {
          "indexed": true,
          "internalType": "address",
          "name": "pledger",
          "type": "address"
        },
        {
          "indexed": false,
          "internalType": "uint256",
          "name": "amount",
          "type": "uint256"
        }
      ],
      "name": "Refund",
      "type": "event"
    },
    {
      "anonymous": false,
      "inputs": [
        {
          "indexed": true,
          "internalType": "uint256",
          "name": "id",
          "type": "uint256"
        },
        {
          "indexed": true,
          "internalType": "address",
          "name": "pledger",
          "type": "address"
        },
        {
          "indexed": false,
          "internalType": "uint256",
          "name": "amount",
          "type": "uint256"
        }
      ],
      "name": "Revoke",
      "type": "event"
    },
    {
      "anonymous": false,
      "inputs": [
        {
          "indexed": false,
          "internalType": "uint256",
          "name": "id",
          "type": "uint256"
        }
      ],
      "name": "Withdraw",
      "type": "event"
    },
    {
      "inputs": [
        {
          "internalType": "uint256",
          "name": "",
          "type": "uint256"
        }
      ],
      "name": "campaigns",
      "outputs": [
        {
          "internalType": "address",
          "name": "owner",
          "type": "address"
        },
        {
          "internalType": "string",
          "name": "title",
          "type": "string"
        },
        {
          "internalType": "string",
          "name": "description",
          "type": "string"
        },
        {
          "internalType": "uint256",
          "name": "pledged",
          "type": "uint256"
        },
        {
          "internalType": "uint256",
          "name": "goal",
          "type": "uint256"
        },
        {
          "internalType": "uint32",
          "name": "startAt",
          "type": "uint32"
        },
        {
          "internalType": "uint32",
          "name": "endAt",
          "type": "uint32"
        },
        {
          "internalType": "bool",
          "name": "claimed",
          "type": "bool"
        }
      ],
      "stateMutability": "view",
      "type": "function"
    },
    {
      "inputs": [
        {
          "internalType": "uint256",
          "name": "_id",
          "type": "uint256"
        }
      ],
      "name": "cancelCampaign",
      "outputs": [],
      "stateMutability": "nonpayable",
      "type": "function"
    },
    {
      "inputs": [
        {
          "internalType": "string",
          "name": "_title",
          "type": "string"
        },
        {
          "internalType": "string",
          "name": "_description",
          "type": "string"
        },
        {
          "internalType": "uint256",
          "name": "_goal",
          "type": "uint256"
        },
        {
          "internalType": "uint32",
          "name": "_startAt",
          "type": "uint32"
        },
        {
          "internalType": "uint32",
          "name": "_endAt",
          "type": "uint32"
        }
      ],
      "name": "launchCampaign",
      "outputs": [],
      "stateMutability": "nonpayable",
      "type": "function"
    },
    {
      "inputs": [
        {
          "internalType": "uint256",
          "name": "_id",
          "type": "uint256"
        },
        {
          "internalType": "uint256",
          "name": "_amount",
          "type": "uint256"
        }
      ],
      "name": "pledgeTo",
      "outputs": [],
      "stateMutability": "nonpayable",
      "type": "function"
    },
    {
      "inputs": [
        {
          "internalType": "uint256",
          "name": "",
          "type": "uint256"
        },
        {
          "internalType": "address",
          "name": "",
          "type": "address"
        }
      ],
      "name": "pledgedAmount",
      "outputs": [
        {
          "internalType": "uint256",
          "name": "",
          "type": "uint256"
        }
      ],
      "stateMutability": "view",
      "type": "function"
    },
    {
      "inputs": [
        {
          "internalType": "uint256",
          "name": "_id",
          "type": "uint256"
        }
      ],
      "name": "refund",
      "outputs": [],
      "stateMutability": "nonpayable",
      "type": "function"
    },
    {
      "inputs": [
        {
          "internalType": "uint256",
          "name": "_id",
          "type": "uint256"
        },
        {
          "internalType": "uint256",
          "name": "_amount",
          "type": "uint256"
        }
      ],
      "name": "revokePledge",
      "outputs": [],
      "stateMutability": "nonpayable",
      "type": "function"
    },
    {
      "inputs": [],
      "name": "token",
      "outputs": [
        {
          "internalType": "contract IERC20",
          "name": "",
          "type": "address"
        }
      ],
      "stateMutability": "view",
      "type": "function"
    },
    {
      "inputs": [],
      "name": "totalCampaigns",
      "outputs": [
        {
          "internalType": "uint256",
          "name": "",
          "type": "uint256"
        }
      ],
      "stateMutability": "view",
      "type": "function"
    },
    {
      "inputs": [
        {
          "internalType": "uint256",
          "name": "_id",
          "type": "uint256"
        }
      ],
      "name": "withdrawFrom",
      "outputs": [],
      "stateMutability": "nonpayable",
      "type": "function"
    }
  ],
  "bytecode": "0x60a06040523480156200001157600080fd5b50604051620022ae380380620022ae83398181016040528101906200003791906200008c565b8073ffffffffffffffffffffffffffffffffffffffff1660808173ffffffffffffffffffffffffffffffffffffffff1660601b815250505062000106565b6000815190506200008681620000ec565b92915050565b6000602082840312156200009f57600080fd5b6000620000af8482850162000075565b91505092915050565b6000620000c582620000cc565b9050919050565b600073ffffffffffffffffffffffffffffffffffffffff82169050919050565b620000f781620000b8565b81146200010357600080fd5b50565b60805160601c61216d62000141600039600081816107e401528181610e8a015281816110ca015281816112c401526113c6015261216d6000f3fe608060405234801561001057600080fd5b506004361061009e5760003560e01c8063aa4fb63a11610066578063aa4fb63a1461014c578063e6dad8241461017c578063f0a6cf3914610198578063f424672b146101b4578063fc0c546a146101d05761009e565b806302932f56146100a35780630caff08a146100c1578063141961bc146100dd578063278ecde11461011457806345598b4a14610130575b600080fd5b6100ab6101ee565b6040516100b89190611b64565b60405180910390f35b6100db60048036038101906100d691906115b0565b6101f4565b005b6100f760048036038101906100f29190611657565b6104d5565b60405161010b989796959493929190611934565b60405180910390f35b61012e60048036038101906101299190611657565b61067a565b005b61014a60048036038101906101459190611657565b6108e4565b005b61016660048036038101906101619190611680565b610ca4565b6040516101739190611b64565b60405180910390f35b61019660048036038101906101919190611657565b610cc9565b005b6101b260048036038101906101ad91906116bc565b610f75565b005b6101ce60048036038101906101c991906116bc565b6111cc565b005b6101d86113c4565b6040516101e591906119e9565b60405180910390f35b60005481565b428263ffffffff16101561023d576040517f08c379a000000000000000000000000000000000000000000000000000000000815260040161023490611ae4565b60405180910390fd5b8163ffffffff168163ffffffff16101561028c576040517f08c379a000000000000000000000000000000000000000000000000000000000815260040161028390611ae4565b60405180910390fd5b621275004261029b9190611c60565b8163ffffffff1611156102e3576040517f08c379a00000000000000000000000000000000000000000000000000000000081526004016102da90611ac4565b60405180910390fd5b6000808154809291906102f590611e0b565b91905055506040518061010001604052803373ffffffffffffffffffffffffffffffffffffffff168152602001868152602001858152602001600081526020018481526020018363ffffffff1681526020018263ffffffff16815260200160001515815250600160008054815260200190815260200160002060008201518160000160006101000a81548173ffffffffffffffffffffffffffffffffffffffff021916908373ffffffffffffffffffffffffffffffffffffffff16021790555060208201518160010190805190602001906103d19291906113e8565b5060408201518160020190805190602001906103ee9291906113e8565b50606082015181600301556080820151816004015560a08201518160050160006101000a81548163ffffffff021916908363ffffffff16021790555060c08201518160050160046101000a81548163ffffffff021916908363ffffffff16021790555060e08201518160050160086101000a81548160ff0219169083151502179055509050503373ffffffffffffffffffffffffffffffffffffffff167f0c1f42855fee1b60c3b5e844d1afbf773f8134d497aef0c74712f80c901f0dfc60005487868887876040516104c696959493929190611b7f565b60405180910390a25050505050565b60016020528060005260406000206000915090508060000160009054906101000a900473ffffffffffffffffffffffffffffffffffffffff169080600101805461051e90611da8565b80601f016020809104026020016040519081016040528092919081815260200182805461054a90611da8565b80156105975780601f1061056c57610100808354040283529160200191610597565b820191906000526020600020905b81548152906001019060200180831161057a57829003601f168201915b5050505050908060020180546105ac90611da8565b80601f01602080910402602001604051908101604052809291908181526020018280546105d890611da8565b80156106255780601f106105fa57610100808354040283529160200191610625565b820191906000526020600020905b81548152906001019060200180831161060857829003601f168201915b5050505050908060030154908060040154908060050160009054906101000a900463ffffffff16908060050160049054906101000a900463ffffffff16908060050160089054906101000a900460ff16905088565b60006001600083815260200190815260200160002090508060050160049054906101000a900463ffffffff1663ffffffff1642116106ed576040517f08c379a00000000000000000000000000000000000000000000000000000000081526004016106e490611aa4565b60405180910390fd5b8060040154816003015410610737576040517f08c379a000000000000000000000000000000000000000000000000000000000815260040161072e90611a44565b60405180910390fd5b60006002600084815260200190815260200160002060003373ffffffffffffffffffffffffffffffffffffffff1673ffffffffffffffffffffffffffffffffffffffff16815260200190815260200160002054905060006002600085815260200190815260200160002060003373ffffffffffffffffffffffffffffffffffffffff1673ffffffffffffffffffffffffffffffffffffffff168152602001908152602001600020819055507f000000000000000000000000000000000000000000000000000000000000000073ffffffffffffffffffffffffffffffffffffffff1663a9059cbb33836040518363ffffffff1660e01b815260040161083d9291906119c0565b602060405180830381600087803b15801561085757600080fd5b505af115801561086b573d6000803e3d6000fd5b505050506040513d601f19601f8201168201806040525081019061088f9190611587565b503373ffffffffffffffffffffffffffffffffffffffff16837f21e12a7cad0da5928167e1084ea4d5fdf8d9af66657a2543a9ac76a0ca081477836040516108d79190611b64565b60405180910390a3505050565b600060016000838152602001908152602001600020604051806101000160405290816000820160009054906101000a900473ffffffffffffffffffffffffffffffffffffffff1673ffffffffffffffffffffffffffffffffffffffff1673ffffffffffffffffffffffffffffffffffffffff16815260200160018201805461096b90611da8565b80601f016020809104026020016040519081016040528092919081815260200182805461099790611da8565b80156109e45780601f106109b9576101008083540402835291602001916109e4565b820191906000526020600020905b8154815290600101906020018083116109c757829003601f168201915b505050505081526020016002820180546109fd90611da8565b80601f0160208091040260200160405190810160405280929190818152602001828054610a2990611da8565b8015610a765780601f10610a4b57610100808354040283529160200191610a76565b820191906000526020600020905b815481529060010190602001808311610a5957829003601f168201915b5050505050815260200160038201548152602001600482015481526020016005820160009054906101000a900463ffffffff1663ffffffff1663ffffffff1681526020016005820160049054906101000a900463ffffffff1663ffffffff1663ffffffff1681526020016005820160089054906101000a900460ff1615151515815250509050806000015173ffffffffffffffffffffffffffffffffffffffff163373ffffffffffffffffffffffffffffffffffffffff1614610b6e576040517f08c379a0000000000000000000000000000000000000000000000000000000008152600401610b6590611b44565b60405180910390fd5b8060a0015163ffffffff164210610bba576040517f08c379a0000000000000000000000000000000000000000000000000000000008152600401610bb190611a24565b60405180910390fd5b60016000838152602001908152602001600020600080820160006101000a81549073ffffffffffffffffffffffffffffffffffffffff0219169055600182016000610c05919061146e565b600282016000610c15919061146e565b600382016000905560048201600090556005820160006101000a81549063ffffffff02191690556005820160046101000a81549063ffffffff02191690556005820160086101000a81549060ff021916905550507f8bf30e7ff26833413be5f69e1d373744864d600b664204b4a2f9844a8eedb9ed82604051610c989190611b64565b60405180910390a15050565b6002602052816000526040600020602052806000526040600020600091509150505481565b60006001600083815260200190815260200160002090508060000160009054906101000a900473ffffffffffffffffffffffffffffffffffffffff1673ffffffffffffffffffffffffffffffffffffffff163373ffffffffffffffffffffffffffffffffffffffff1614610d72576040517f08c379a0000000000000000000000000000000000000000000000000000000008152600401610d6990611a84565b60405180910390fd5b8060050160049054906101000a900463ffffffff1663ffffffff164211610dce576040517f08c379a0000000000000000000000000000000000000000000000000000000008152600401610dc590611aa4565b60405180910390fd5b806004015481600301541015610e19576040517f08c379a0000000000000000000000000000000000000000000000000000000008152600401610e1090611a04565b60405180910390fd5b8060050160089054906101000a900460ff1615610e6b576040517f08c379a0000000000000000000000000000000000000000000000000000000008152600401610e6290611a64565b60405180910390fd5b60018160050160086101000a81548160ff0219169083151502179055507f000000000000000000000000000000000000000000000000000000000000000073ffffffffffffffffffffffffffffffffffffffff1663a9059cbb3383600301546040518363ffffffff1660e01b8152600401610ee79291906119c0565b602060405180830381600087803b158015610f0157600080fd5b505af1158015610f15573d6000803e3d6000fd5b505050506040513d601f19601f82011682018060405250810190610f399190611587565b507f5b6b431d4476a211bb7d41c20d1aab9ae2321deee0d20be3d9fc9b1093fa6e3d82604051610f699190611b64565b60405180910390a15050565b60006001600084815260200190815260200160002090508060050160009054906101000a900463ffffffff1663ffffffff16421015610fe9576040517f08c379a0000000000000000000000000000000000000000000000000000000008152600401610fe090611b04565b60405180910390fd5b8060050160049054906101000a900463ffffffff1663ffffffff16421115611046576040517f08c379a000000000000000000000000000000000000000000000000000000000815260040161103d90611b24565b60405180910390fd5b8181600301600082825461105a9190611c60565b92505081905550816002600085815260200190815260200160002060003373ffffffffffffffffffffffffffffffffffffffff1673ffffffffffffffffffffffffffffffffffffffff16815260200190815260200160002060008282546110c19190611c60565b925050819055507f000000000000000000000000000000000000000000000000000000000000000073ffffffffffffffffffffffffffffffffffffffff166323b872dd3330856040518463ffffffff1660e01b8152600401611125939291906118fd565b602060405180830381600087803b15801561113f57600080fd5b505af1158015611153573d6000803e3d6000fd5b505050506040513d601f19601f820116820180604052508101906111779190611587565b503373ffffffffffffffffffffffffffffffffffffffff16837f06bdb975df800a73232998e71ed585d536222f1dfeaa622d7f62a23ada686c82846040516111bf9190611b64565b60405180910390a3505050565b60006001600084815260200190815260200160002090508060050160049054906101000a900463ffffffff1663ffffffff16421115611240576040517f08c379a000000000000000000000000000000000000000000000000000000000815260040161123790611b24565b60405180910390fd5b818160030160008282546112549190611cb6565b92505081905550816002600085815260200190815260200160002060003373ffffffffffffffffffffffffffffffffffffffff1673ffffffffffffffffffffffffffffffffffffffff16815260200190815260200160002060008282546112bb9190611cb6565b925050819055507f000000000000000000000000000000000000000000000000000000000000000073ffffffffffffffffffffffffffffffffffffffff1663a9059cbb33846040518363ffffffff1660e01b815260040161131d9291906119c0565b602060405180830381600087803b15801561133757600080fd5b505af115801561134b573d6000803e3d6000fd5b505050506040513d601f19601f8201168201806040525081019061136f9190611587565b503373ffffffffffffffffffffffffffffffffffffffff16837f30d0c566c6ca8cb74e56685939b050853fe357387d2b66754be789488eef77c5846040516113b79190611b64565b60405180910390a3505050565b7f000000000000000000000000000000000000000000000000000000000000000081565b8280546113f490611da8565b90600052602060002090601f016020900481019282611416576000855561145d565b82601f1061142f57805160ff191683800117855561145d565b8280016001018555821561145d579182015b8281111561145c578251825591602001919060010190611441565b5b50905061146a91906114ae565b5090565b50805461147a90611da8565b6000825580601f1061148c57506114ab565b601f0160209004906000526020600020908101906114aa91906114ae565b5b50565b5b808211156114c75760008160009055506001016114af565b5090565b60006114de6114d984611c13565b611bee565b9050828152602081018484840111156114f657600080fd5b611501848285611d66565b509392505050565b600081359050611518816120db565b92915050565b60008151905061152d816120f2565b92915050565b600082601f83011261154457600080fd5b81356115548482602086016114cb565b91505092915050565b60008135905061156c81612109565b92915050565b60008135905061158181612120565b92915050565b60006020828403121561159957600080fd5b60006115a78482850161151e565b91505092915050565b600080600080600060a086880312156115c857600080fd5b600086013567ffffffffffffffff8111156115e257600080fd5b6115ee88828901611533565b955050602086013567ffffffffffffffff81111561160b57600080fd5b61161788828901611533565b94505060406116288882890161155d565b935050606061163988828901611572565b925050608061164a88828901611572565b9150509295509295909350565b60006020828403121561166957600080fd5b60006116778482850161155d565b91505092915050565b6000806040838503121561169357600080fd5b60006116a18582860161155d565b92505060206116b285828601611509565b9150509250929050565b600080604083850312156116cf57600080fd5b60006116dd8582860161155d565b92505060206116ee8582860161155d565b9150509250929050565b61170181611cea565b82525050565b61171081611cfc565b82525050565b61171f81611d42565b82525050565b600061173082611c44565b61173a8185611c4f565b935061174a818560208601611d75565b61175381611ee1565b840191505092915050565b600061176b601083611c4f565b915061177682611ef2565b602082019050919050565b600061178e600f83611c4f565b915061179982611f1b565b602082019050919050565b60006117b1601683611c4f565b91506117bc82611f44565b602082019050919050565b60006117d4600f83611c4f565b91506117df82611f6d565b602082019050919050565b60006117f7600983611c4f565b915061180282611f96565b602082019050919050565b600061181a600983611c4f565b915061182582611fbf565b602082019050919050565b600061183d602383611c4f565b915061184882611fe8565b604082019050919050565b6000611860600c83611c4f565b915061186b82612037565b602082019050919050565b6000611883600b83611c4f565b915061188e82612060565b602082019050919050565b60006118a6600583611c4f565b91506118b182612089565b602082019050919050565b60006118c9600983611c4f565b91506118d4826120b2565b602082019050919050565b6118e881611d28565b82525050565b6118f781611d32565b82525050565b600060608201905061191260008301866116f8565b61191f60208301856116f8565b61192c60408301846118df565b949350505050565b60006101008201905061194a600083018b6116f8565b818103602083015261195c818a611725565b905081810360408301526119708189611725565b905061197f60608301886118df565b61198c60808301876118df565b61199960a08301866118ee565b6119a660c08301856118ee565b6119b360e0830184611707565b9998505050505050505050565b60006040820190506119d560008301856116f8565b6119e260208301846118df565b9392505050565b60006020820190506119fe6000830184611716565b92915050565b60006020820190508181036000830152611a1d8161175e565b9050919050565b60006020820190508181036000830152611a3d81611781565b9050919050565b60006020820190508181036000830152611a5d816117a4565b9050919050565b60006020820190508181036000830152611a7d816117c7565b9050919050565b60006020820190508181036000830152611a9d816117ea565b9050919050565b60006020820190508181036000830152611abd8161180d565b9050919050565b60006020820190508181036000830152611add81611830565b9050919050565b60006020820190508181036000830152611afd81611853565b9050919050565b60006020820190508181036000830152611b1d81611876565b9050919050565b60006020820190508181036000830152611b3d81611899565b9050919050565b60006020820190508181036000830152611b5d816118bc565b9050919050565b6000602082019050611b7960008301846118df565b92915050565b600060c082019050611b9460008301896118df565b8181036020830152611ba68188611725565b9050611bb560408301876118df565b8181036060830152611bc78186611725565b9050611bd660808301856118ee565b611be360a08301846118ee565b979650505050505050565b6000611bf8611c09565b9050611c048282611dda565b919050565b6000604051905090565b600067ffffffffffffffff821115611c2e57611c2d611eb2565b5b611c3782611ee1565b9050602081019050919050565b600081519050919050565b600082825260208201905092915050565b6000611c6b82611d28565b9150611c7683611d28565b9250827fffffffffffffffffffffffffffffffffffffffffffffffffffffffffffffffff03821115611cab57611caa611e54565b5b828201905092915050565b6000611cc182611d28565b9150611ccc83611d28565b925082821015611cdf57611cde611e54565b5b828203905092915050565b6000611cf582611d08565b9050919050565b60008115159050919050565b600073ffffffffffffffffffffffffffffffffffffffff82169050919050565b6000819050919050565b600063ffffffff82169050919050565b6000611d4d82611d54565b9050919050565b6000611d5f82611d08565b9050919050565b82818337600083830152505050565b60005b83811015611d93578082015181840152602081019050611d78565b83811115611da2576000848401525b50505050565b60006002820490506001821680611dc057607f821691505b60208210811415611dd457611dd3611e83565b5b50919050565b611de382611ee1565b810181811067ffffffffffffffff82111715611e0257611e01611eb2565b5b80604052505050565b6000611e1682611d28565b91507fffffffffffffffffffffffffffffffffffffffffffffffffffffffffffffffff821415611e4957611e48611e54565b5b600182019050919050565b7f4e487b7100000000000000000000000000000000000000000000000000000000600052601160045260246000fd5b7f4e487b7100000000000000000000000000000000000000000000000000000000600052602260045260246000fd5b7f4e487b7100000000000000000000000000000000000000000000000000000000600052604160045260246000fd5b6000601f19601f8301169050919050565b7f4469646e2774206d65657420676f616c00000000000000000000000000000000600082015250565b7f616c726561647920737461727465640000000000000000000000000000000000600082015250565b7f706c6564676564206c657373207468616e20676f616c00000000000000000000600082015250565b7f616c726561796420636c61696d65640000000000000000000000000000000000600082015250565b7f4e6f74206f776e65720000000000000000000000000000000000000000000000600082015250565b7f4e6f7420656e6465640000000000000000000000000000000000000000000000600082015250565b7f656e642061742069732067726561746572207468616e206d617820647572617460008201527f696f6e0000000000000000000000000000000000000000000000000000000000602082015250565b7f696e7661696c6420646174650000000000000000000000000000000000000000600082015250565b7f6e6f742073746172746564000000000000000000000000000000000000000000600082015250565b7f656e646564000000000000000000000000000000000000000000000000000000600082015250565b7f6e6f74206f776e65720000000000000000000000000000000000000000000000600082015250565b6120e481611cea565b81146120ef57600080fd5b50565b6120fb81611cfc565b811461210657600080fd5b50565b61211281611d28565b811461211d57600080fd5b50565b61212981611d32565b811461213457600080fd5b5056fea2646970667358221220d4678b6824fa5294e32eb5d2e7de99da523b59cc74f51186c1adc36076f70bdb64736f6c63430008040033",
  "linkReferences": {},
  "deployedLinkReferences": {}
}